:020000040800F2
:1000000000500020E91F0008051900080D1900081C
:10001000151900081D190008251900080000000026
:100020000000000000000000000000002D19000882
:10003000391900080000000045190008511900088E
:10004000312000083120000831200008312000084C
:10005000312000083120000831200008312000083C
:10006000312000083120000831200008312000082C
:10007000312000083120000831200008312000081C
:10008000312000083120000831200008312000080C
:100090005D1900083120000831200008711900089E
:1000A00031200008312000083120000831200008EC
:1000B00031200008312000083120000831200008DC
:1000C00031200008312000083120000831200008CC
:1000D00031200008312000083120000831200008BC
:1000E0003120000831200008312000080000000005
:1000F0000000000000000000000000000000000000
:0C01000000000000000000005FF808F1A3
:1001100010B5054C237833B9044B13B10448AFF341
:1001200000800123237010BD5C000020000000004F
:10013000D456000808B5034B1BB103490348AFF37D
:10014000008008BD0000000060000020D4560008B8
:100150004FF0FF0C1CEAD0521EBF1CEAD15392EAAA
:100160000C0F93EA0C0F6FD01A4480EA010C400286
:1001700018BF5FEA41211ED04FF0006343EA5010E0
:1001800043EA5111A0FB01310CF00040B1F5000F22
:100190003EBF490041EAD3715B0040EA010062F1D1
:1001A0007F02FD2A1DD8B3F1004F40EBC25008BFBB
:1001B00020F00100704790F0000F0CF0004C08BFD9
:1001C00049024CEA502040EA51207F3AC2BFD2F1A6
:1001D000FF0340EAC250704740F400004FF00003B4
:1001E000013A5DDC12F1190FDCBF00F000407047EE
:1001F000C2F10002410021FA02F1C2F1200200FA2C
:1002000002FC5FEA310040F1000053EA4C0308BFF2
:1002100020EADC70704792F0000F00F0004C02BF43
:10022000400010F4000F013AF9D040EA0C0093F0BE
:10023000000F01F0004C02BF490011F4000F013B18
:10024000F9D041EA0C018FE70CEAD15392EA0C0F86
:1002500018BF93EA0C0F0AD030F0004C18BF31F0F1
:10026000004CD8D180EA010000F00040704790F0C7
:10027000000F17BF90F0004F084691F0000F91F06B
:10028000004F14D092EA0C0F01D142020FD193EA31
:100290000C0F03D14B0218BF084608D180EA0100B9
:1002A00000F0004040F0FE4040F40000704740F095
:1002B000FE4040F44000704781F0004102E000BF82
:1002C00083F0004330B54FEA41044FEA430594EA16
:1002D000050F08BF90EA020F1FBF54EA000C55EA51
:1002E000020C7FEA645C7FEA655C00F0E2804FEA22
:1002F0005454D4EB5555B8BF6D420CDD2C4480EA04
:10030000020281EA030382EA000083EA010180EA33
:10031000020281EA0303362D88BF30BD11F0004F81
:100320004FEA01314FF4801C4CEA113102D04042B7
:1003300061EB410113F0004F4FEA03334CEA1333F2
:1003400002D0524263EB430394EA050F00F0A7800A
:10035000A4F10104D5F1200E0DDB02FA0EFC22FA05
:1003600005F2801841F1000103FA0EF2801843FAF9
:1003700005F359410EE0A5F120050EF1200E012AEA
:1003800003FA0EFC28BF4CF0020C43FA05F3C01828
:1003900051EBE37101F0004507D54FF0000EDCF1A1
:1003A000000C7EEB00006EEB0101B1F5801F1BD34A
:1003B000B1F5001F0CD349085FEA30004FEA3C0C4E
:1003C00004F101044FEA445212F5800F80F09A8044
:1003D000BCF1004F08BF5FEA500C50F1000041EB48
:1003E000045141EA050130BD5FEA4C0C404141EB4C
:1003F0000101013C28BFB1F5801FE9D291F0000F47
:1004000004BF01460020B1FA81F308BF2033A3F1F5
:100410000B03B3F120020CDA0C3208DD02F1140CEC
:10042000C2F10C0201FA0CF021FA02F10CE002F127
:100430001402D8BFC2F1200C01FA02F120FA0CFC20
:10044000DCBF41EA0C019040E41AA2BF01EB045169
:10045000294330BD6FEA04041F3C1CDA0C340EDC67
:1004600004F11404C4F1200220FA04F001FA02F3AA
:1004700040EA030021FA04F345EA030130BDC4F168
:100480000C04C4F1200220FA02F001FA04F340EA5D
:100490000300294630BD21FA04F0294630BD94F00E
:1004A000000F83F4801306BF81F480110134013DF5
:1004B0004EE77FEA645C18BF7FEA655C29D094EA66
:1004C000050F08BF90EA020F05D054EA000C04BFE4
:1004D0001946104630BD91EA030F1EBF00210020CF
:1004E00030BD5FEA545C05D14000494128BF41F06E
:1004F000004130BD14F580043CBF01F5801130BDD2
:1005000001F0004545F0FE4141F470014FF000005C
:1005100030BD7FEA645C1ABF194610467FEA655C0D
:100520001CBF0B46024650EA013406BF52EA0335AF
:1005300091EA030F41F4002130BD00BF90F0000F9D
:1005400004BF0021704730B54FF4806404F13204D9
:100550004FF000054FF0000150E700BF90F0000F92
:1005600004BF0021704730B54FF4806404F13204B9
:1005700010F0004548BF40424FF000013EE700BF89
:1005800042004FEAE2014FEA31014FEA02701FBF19
:1005900012F07F4393F07F4F81F06051704732F04B
:1005A0007F4208BF704793F07F4F04BF41F40021A2
:1005B000704730B54FF4607401F0004521F0004100
:1005C0001CE700BF50EA010208BF704730B54FF08A
:1005D00000050AE050EA010208BF704730B511F08B
:1005E000004502D5404261EB41014FF4806404F1C3
:1005F00032045FEA915C3FF4D8AE4FF003025FEA49
:10060000DC0C18BF03325FEADC0C18BF033202EBCC
:10061000DC02C2F1200300FA03FC20FA02F001FA26
:1006200003FE40EA0E0021FA02F11444BDE600BFC9
:1006300070B54FF0FF0C4CF4E06C1CEA11541DBF78
:100640001CEA135594EA0C0F95EA0C0F00F0DEF843
:100650002C4481EA030621EA4C5123EA4C5350EA28
:10066000013518BF52EA033541F4801143F4801379
:1006700038D0A0FB02CE4FF00005E1FB02E506F00A
:100680000042E0FB03E54FF00006E1FB03569CF05F
:10069000000F18BF4EF0010EA4F1FF04B6F5007F65
:1006A00064F5407404D25FEA4E0E6D4146EB0606D7
:1006B00042EAC62141EA55514FEAC52040EA5E5060
:1006C0004FEACE2EB4F1FD0C88BFBCF5E06F1ED80A
:1006D000BEF1004F08BF5FEA500E50F1000041EB41
:1006E000045170BD06F0004646EA010140EA0200EE
:1006F00081EA0301B4EB5C04C2BFD4EB0C0541EA10
:10070000045170BD41F480114FF0000E013C00F324
:10071000AB8014F1360FDEBF002001F0004170BD48
:10072000C4F10004203C35DA0C341BDC04F1140461
:10073000C4F1200500FA05F320FA04F001FA05F2ED
:1007400040EA020001F0004221F0004110EBD370BA
:1007500021FA04F642EB06015EEA430E08BF20EAE6
:10076000D37070BDC4F10C04C4F1200500FA04F389
:1007700020FA05F001FA04F240EA020001F000411B
:1007800010EBD37041F100015EEA430E08BF20EA8E
:10079000D37070BDC4F1200500FA05F24EEA020ED6
:1007A00020FA04F301FA05F243EA020321FA04F005
:1007B00001F0004121FA04F220EA020000EBD370BC
:1007C0005EEA430E08BF20EAD37070BD94F0000FBC
:1007D0000FD101F00046400041EB010111F4801FF0
:1007E00008BF013CF7D041EA060195F0000F18BFA1
:1007F000704703F00046520043EB030313F4801FDD
:1008000008BF013DF7D043EA0603704794EA0C0F96
:100810000CEA135518BF95EA0C0F0CD050EA4106AC
:1008200018BF52EA4306D1D181EA030101F0004129
:100830004FF0000070BD50EA410606BF1046194651
:1008400052EA430619D094EA0C0F02D150EA01365D
:1008500013D195EA0C0F05D152EA03361CBF10469E
:1008600019460AD181EA030101F0004141F0FE413D
:1008700041F470014FF0000070BD41F0FE4141F4C1
:10088000780170BD70B54FF0FF0C4CF4E06C1CEAC1
:1008900011541DBF1CEA135594EA0C0F95EA0C0F76
:1008A00000F0A7F8A4EB050481EA030E52EA033531
:1008B0004FEA013100F088804FEA03334FF0805552
:1008C00045EA131343EA12634FEA022245EA11157F
:1008D00045EA10654FEA00260EF000419D4208BF30
:1008E000964244F1FD0404F5407402D25B084FEADD
:1008F0003202B61A65EB03055B084FEA32024FF489
:1009000080104FF4002CB6EB020E75EB030E22BFE5
:10091000B61A754640EA0C005B084FEA3202B6EBA5
:10092000020E75EB030E22BFB61A754640EA5C0054
:100930005B084FEA3202B6EB020E75EB030E22BFE4
:10094000B61A754640EA9C005B084FEA3202B6EBE5
:10095000020E75EB030E22BFB61A754640EADC00A4
:1009600055EA060E18D04FEA051545EA16754FEA06
:1009700006164FEAC30343EA52734FEAC2025FEA24
:100980001C1CC0D111F4801F0BD141EA00014FF0B3
:1009900000004FF0004CB6E711F4801F04BF014384
:1009A0000020B4F1FD0C88BFBCF5E06F3FF6AFAEA0
:1009B000B5EB030C04BFB6EB020C5FEA500C50F130
:1009C000000041EB045170BD0EF0004E4EEA1131B3
:1009D00014EB5C04C2BFD4EB0C0541EA045170BDBA
:1009E00041F480114FF0000E013C90E645EA060EFE
:1009F0008DE60CEA135594EA0C0F08BF95EA0C0F2C
:100A00003FF43BAF94EA0C0F0AD150EA01347FF473
:100A100034AF95EA0C0F7FF425AF104619462CE74A
:100A200095EA0C0F06D152EA03353FF4FDAE1046AD
:100A3000194622E750EA410618BF52EA43067FF4FE
:100A4000C5AE50EA41047FF40DAF52EA43057FF48E
:100A5000EBAE12E74FF0FF3C06E000BF4FF0010C99
:100A600002E000BF4FF0010C4DF804CD4FEA410CFD
:100A70007FEA6C5C4FEA430C18BF7FEA6C5C1BD0CA
:100A800001B050EA410C0CBF52EA430C91EA030F4B
:100A900002BF90EA020F0020704710F1000F91EAA8
:100AA000030F58BF994208BF90422CBFD8176FEA76
:100AB000E37040F0010070474FEA410C7FEA6C5C44
:100AC00002D150EA013C07D14FEA430C7FEA6C5C4B
:100AD000D6D152EA033CD3D05DF8040B704700BF77
:100AE0008446104662468C461946634600E000BFC5
:100AF00001B5FFF7B7FF002848BF10F1000F01BD97
:100B00004DF808EDFFF7F4FF0CBF012000205DF861
:100B100008FB00BF4DF808EDFFF7EAFF34BF0120E6
:100B200000205DF808FB00BF4DF808EDFFF7E0FF7F
:100B300094BF012000205DF808FB00BF4DF808EDD0
:100B4000FFF7CEFF94BF012000205DF808FB00BF37
:100B50004DF808EDFFF7C4FF34BF012000205DF819
:100B600008FB00BF4FEA410212F5001215D211D561
:100B70006FF47873B3EB625212D94FEAC12343F09A
:100B8000004343EA505311F0004F23FA02F018BF1C
:100B9000404270474FF00000704750EA013005D1E5
:100BA00011F0004008BF6FF0004070474FF00000A8
:100BB000704700BF4FEA4102B2F1E04324BFB3F5F2
:100BC000001CDCF1FE5C0DD901F0004C4FEAC002C4
:100BD0004CEA5070B2F1004F40EB830008BF20F0A8
:100BE0000100704711F0804F21D113F13872BCBF62
:100BF00001F00040704741F480114FEA5252C2F1B7
:100C00001802C2F1200C10FA0CF320FA02F018BFFF
:100C100040F001004FEAC1234FEAD32303FA0CFC52
:100C200040EA0C0023FA02F34FEA4303CCE77FEAE1
:100C3000625307D150EA01331EBF4FF0FE4040F42B
:100C40004000704701F0004040F0FE4040F40000DA
:100C5000704700BF80F0004002E000BF81F000411B
:100C600042001FBF5FEA410392EA030F7FEA226C52
:100C70007FEA236C6AD04FEA1262D2EB1363C1BFE2
:100C8000D218414048404140B8BF5B42192B88BF51
:100C9000704710F0004F40F4000020F07F4018BF74
:100CA000404211F0004F41F4000121F07F4118BF94
:100CB000494292EA030F3FD0A2F1010241FA03FC3C
:100CC00010EB0C00C3F1200301FA03F100F0004324
:100CD00002D5494260EB4000B0F5000F13D3B0F1EC
:100CE000807F06D340084FEA310102F10102FE2A5B
:100CF00051D2B1F1004F40EBC25008BF20F00100CB
:100D000040EA03007047490040EB0000013A28BF69
:100D1000B0F5000FEDD2B0FA80FCACF1080CB2EBEC
:100D20000C0200FA0CF0AABF00EBC250524218436A
:100D3000BCBFD0401843704792F0000F81F400010F
:100D400006BF80F400000132013BB5E74FEA4103E2
:100D50007FEA226C18BF7FEA236C21D092EA030F4E
:100D600004D092F0000F08BF0846704790EA010FC8
:100D70001CBF0020704712F07F4F04D1400028BFF5
:100D800040F00040704712F100723CBF00F50000D7
:100D9000704700F0004343F0FE4040F4000070470D
:100DA0007FEA226216BF08467FEA236301464202B9
:100DB00006BF5FEA412390EA010F40F480007047CC
:100DC0004FF0000304E000BF10F0004348BF404272
:100DD0005FEA000C08BF704743F0964301464FF0AE
:100DE00000001CE050EA010208BF70474FF000030A
:100DF0000AE000BF50EA010208BF704711F000434B
:100E000002D5404261EB41015FEA010C02BF84461A
:100E10000146002043F0B64308BFA3F18053A3F579
:100E20000003BCFA8CF2083AA3EBC25310DB01FAC0
:100E300002FC634400FA02FCC2F12002BCF1004F44
:100E400020FA02F243EB020008BF20F001007047D5
:100E500002F1200201FA02FCC2F1200250EA4C0029
:100E600021FA02F243EB020008BF20EADC7070476F
:100E70004FEA4002B2F1FE4F0FD34FF09E03B3EBA7
:100E800012620DD94FEA002343F0004310F0004FE7
:100E900023FA02F018BF404270474FF0000070473D
:100EA00012F1610F01D1420205D110F0004008BFDC
:100EB0006FF0004070474FF00000704742000ED2C4
:100EC000B2F1FE4F0BD34FF09E03B3EB126209D485
:100ED0004FEA002343F0004323FA02F070474FF03B
:100EE0000000704712F1610F01D1420202D14FF0B0
:100EF000FF3070474FF00000704700BF80B485B0EE
:100F000000AFF860B9607A603B60FB68BA681A604D
:100F1000FB687A685A60FB683A689A60FB68BA694D
:100F2000DA60FB6800221A8200BF1437BD4680BC1D
:100F3000704780B584B000AF786039600023FB73E0
:100F40007B681A687B6804331946104601F06CFB15
:100F50000346FB73FB7B002B01D0FB7B22E07B680D
:100F60001B68184601F0A0F90346FB73FB7B002BBE
:100F700001D0FB7B16E07B681B683968184601F0DE
:100F800041FA0346FB73FB7B002B01D0FB7B09E09E
:100F90007B681B68184601F03BFB03469AB27B68EE
:100FA0001A82002318461037BD4680BD80B58AB02E
:100FB00000AF01233B621C237B6200237B61002383
:100FC0003B610023BB610123FB6100233B600023E5
:100FD0007B600023BB600023FB603B4619460E4844
:100FE00001F0B0FD0346002B01D000F0EBFA022126
:100FF000094802F0D8F80346002B01D000F0E2FACD
:10100000054801F068FE0346002B01D000F0DAFA33
:1010100000BF2837BD4680BDD400002080B584B015
:1010200000AFF860B9601346FB710F4B00229A6065
:101030000D4AFB6813600C4B0022DA60FB790A4A08
:1010400013610A4801F05AFF0346002B01D1002327
:1010500006E0074BBA680449044801F080FE0346E5
:1010600018461037BD4680BD88000020D4000020FF
:10107000A000002080B58CB000AF786007F10C03B1
:1010800007F114020021786801F06CFF0346002B81
:1010900001D000F097FA7B6940F2667293421ED04D
:1010A00040F26672934200F2928040F205529342FF
:1010B00000F0818040F20552934200F28880B3F53F
:1010C000607F10D0B3F5607F00F28180C02B6BD0C1
:1010D000C02B7CD8A02B0AD0A22B55D077E03A7C2D
:1010E0003D4B1A7073E03A7B3B4B5A706FE07B7B51
:1010F0001BB21B021AB2384B5A80374BB3F902208D
:101100003B7B1BB213431AB2334B5A80FB7B1BB29F
:101110001B021AB2304BDA802F4BB3F90620BB7B8F
:101120001BB213431AB22C4BDA807B7C1BB21B021E
:101130001AB2294BDA80284BB3F906203B7C1BB24C
:1011400013431AB2244BDA80234BB3F90220224B0B
:101150001A81214BB3F904201F4BB3F908309A428E
:1011600004DD1D4BB3F904201B4B1A811A4BB3F954
:101170000620194BB3F908309A4227DD164BB3F914
:101180000620154B1A8121E07B7C1BB21B021AB290
:10119000114B5A81104BB3F90A203B7C1BB213430D
:1011A0001AB20D4B5A8112E07B7C03F00103DAB2D4
:1011B000094B1A730BE03B7B012B03D1064B012239
:1011C0005A7304E0044B00225A7300E000BF00BFD2
:1011D0003037BD4680BD00BF7800002080B500AF2D
:1011E00000F028FF00F00DF800F07CF900F0A4F802
:1011F00000F0D8F800F062F800F0C8FB00F054FCF2
:10120000FCE780B594B000AF07F128032822002145
:10121000184604F053F807F1140300221A605A60CC
:101220009A60DA601A613B1D00221A605A609A6067
:10123000DA600123BB624FF48033FB624FF400336A
:101240003B630123BB6302237B644FF48033BB64A5
:101250004FF4E013FB6407F12803184602F0AEFCDC
:101260000346002B01D000F0ADF90F237B61022370
:10127000BB610023FB614FF480633B6200237B6210
:1012800007F114030221184602F01AFF0346002B4F
:1012900001D000F097F902237B604FF44043FB60DC
:1012A0003B1D184603F088F80346002B01D000F0E0
:1012B00089F900BF5037BD4680BD000080B584B0BD
:1012C00000AF3B1D00221A605A609A60184B194A01
:1012D0001A60174B00229A60154B00221A73144BA8
:1012E00000221A75124B4FF46022DA61104B002273
:1012F0005A600F4B01221A610D4800F0FDFE0346B3
:10130000002B01D000F05EF901237B600123BB605C
:101310000023FB603B1D1946054801F085F9034693
:10132000002B01D000F04EF900BF1037BD4680BD44
:10133000A40000200024014080B500AF174B184ADC
:101340001A60164B12225A60144B00229A60134BFB
:101350000022DA60114B4FF480321A610F4B0022E9
:101360005A610E4B00221A760C4B00225A760B4B18
:1013700000229A76094B0122DA76084B00221A776E
:10138000064B00225A77054801F0E1FA0346002B8C
:1013900001D000F017F900BF80BD00BFD4000020CD
:1013A0000064004080B590B000AF07F13003002228
:1013B0001A605A609A60DA6007F11C0300221A6012
:1013C0005A609A60DA601A6107F10C0300221A6011
:1013D0005A609A60DA603B1D00221A605A603F4BE7
:1013E0003F4A1A603D4B00225A603C4B00229A60F3
:1013F0003A4B47F23052DA60384B00221A61374BD1
:1014000000225A61354B00229A61344803F040F9BA
:101410000346002B01D000F0D5F84FF480533B6316
:1014200007F1300319462D4803F018FB0346002B43
:1014300001D000F0C7F8294803F01CFA0346002B3E
:1014400001D000F0BFF80423FB6150233B6200236E
:101450007B620023BB620023FB6207F11C03194679
:101460001E4803F0C2FB0346002B01D000F0AAF88F
:101470000023FB6001233B6100237B610023BB61F0
:1014800007F10C0300221946144803F04BFA0346F7
:10149000002B01D000F096F80223FB6002233B6191
:1014A00007F10C03042219460C4803F03BFA0346EB
:1014B000002B01D000F086F800237B600023BB6086
:1014C0003B1D1946054803F09BFE0346002B01D047
:1014D00000F078F800BF4037BD4680BDFC0000201A
:1014E000002C014080B588B000AF07F11003002246
:1014F0001A605A609A60DA602E4B9B692D4A43F05D
:10150000200393612B4B9B6903F02003FB60FB6876
:10151000284B9B69274A43F004039361254B9B6941
:1015200003F00403BB60BB68224B9B69214A43F074
:10153000080393611F4B9B6903F008037B607B6882
:1015400000224FF480511C4802F008FB01233B614C
:1015500000237B610023BB6107F110031946174884
:1015600002F078F94FF480533B6101237B61002343
:10157000BB610223FB6107F1100319460E4802F01C
:1015800069F950233B610E4B7B610023BB6107F17E
:1015900010031946084802F05DF9002200211720C7
:1015A00002F021F9172002F03AF900BF2037BD46BA
:1015B00080BD00BF00100240000C01400008014047
:1015C0000000111080B400AF72B600BF00BFFDE78D
:1015D00080B584B000AFF860B9607A60FB68BA6823
:1015E0001A60FB687A685A607968B86803F0A0F8F6
:1015F000034618461037BD4680BD000080B485B054
:1016000000AF78600B46FB707B681B681B68DB6A69
:10161000FA78C2F1FF0202FB03F3224AA2FB032382
:10162000DB09FB607B685B680C2B35D801A252F8A4
:1016300023F000BF691600089916000899160008E3
:1016400099160008751600089916000899160008E2
:1016500099160008811600089916000899160008C6
:10166000991600088D1600087B681B681B68FA68CD
:101670005A6311E07B681B681B68FA689A630BE089
:101680007B681B681B68FA68DA6305E07B681B6887
:101690001B68FA681A6400BF00BF1437BD4680BCDF
:1016A000704700BF8180808080B485B000AF154B4B
:1016B0009B69144A43F001039361124B9B6903F049
:1016C0000103BB60BB680F4BDB690E4A43F08053DC
:1016D000D3610C4BDB6903F080537B607B680A4B62
:1016E0005B68FB60FB6823F0E063FB60FB6843F032
:1016F0000073FB60044AFB68536000BF1437BD46AB
:1017000080BC7047001002400000014080B58AB0E4
:1017100000AF786007F1180300221A605A609A60DF
:10172000DA607B681B681F4A934237D11E4B9B6966
:101730001D4A43F4007393611B4B9B6903F40073D0
:101740007B617B69184B9B69174A43F004039361E3
:10175000154B9B6903F004033B613B69124B9B698A
:10176000114A43F0080393610F4B9B6903F0080390
:10177000FB60FB68FE23BB610323FB6107F11803D9
:1017800019460A4802F066F80323BB610323FB6194
:1017900007F118031946064802F05CF800BF283725
:1017A000BD4680BD002401400010024000080140F9
:1017B000000C014080B58AB000AF786007F11403D7
:1017C00000221A605A609A60DA607B681B68294AB6
:1017D00093424BD1284BDB69274A43F00073D36116
:1017E000254BDB6903F000733B613B69224B9B692E
:1017F000214A43F0080393611F4B9B6903F00803E0
:10180000FB60FB684FF480737B610023BB610123A5
:10181000FB6107F114031946184802F01BF84FF456
:1018200000737B610223BB6103233B6207F1140356
:101830001946124802F00EF8114B5B687B627B6A16
:1018400023F4C0437B627B6A43F0E0637B627B6A84
:1018500043F480437B620A4A7B6A53600022002182
:10186000142001F0C0FF142001F0D9FF00BF283779
:10187000BD4680BD0064004000100240000C0140E5
:101880000000014080B588B000AF786007F1100318
:1018900000221A605A609A60DA607B681B68164AF8
:1018A000934224D1154B9B69144A43F4006393611E
:1018B000124B9B6903F40063FB60FB680F4B9B6951
:1018C0000E4A43F0040393610C4B9B6903F004033D
:1018D000BB60BB684FF480733B6100237B610023D6
:1018E000BB6107F110031946054801F0B3FF00BFC3
:1018F0002037BD4680BD00BF002C014000100240D3
:101900000008014080B400AF00BFFDE780B400AF25
:1019100000BFFDE780B400AF00BFFDE780B400AFBB
:1019200000BFFDE780B400AF00BFFDE780B400AFAB
:1019300000BFBD4680BC704780B400AF00BFBD464D
:1019400080BC704780B400AF00BFBD4680BC70470C
:1019500080B500AF00F0B4FB00BF80BD80B500AF24
:10196000024801F045FC00BF80BD00BFD40000204C
:1019700080B500AF402002F009F900BF80BD80B4FF
:1019800000AF00BFBD4680BC7047000080B582B08C
:1019900002AFFFF70BFB0723009301230422324918
:1019A0003248FFF7ABFA07230093012305222E49A3
:1019B0002F48FFF7A3FA07230093012300222A49A7
:1019C0002C48FFF79BFA07230093012302222649A4
:1019D0002948FFF793FA07230093012301222249A4
:1019E0002648FFF78BFA07230093012303221E49A1
:1019F0002348FFF783FA07230093012306221A499D
:101A00002048FFF77BFA072300930123072216499A
:101A10001D48FFF773FA0723009301230822124998
:101A20001A48FFF76BFA07230093012309220E4996
:101A30001748FFF763FA002216491748FFF7C8FD59
:101A4000042214491548FFF7C3FD154800F08EFA2B
:101A5000144800F08BFAFF2000F048FA802000F0D4
:101A600055FA00BFBD4680BDA40000206C010020D7
:101A70008001002044010020580100209401002032
:101A8000A8010020BC010020D0010020E4010020BA
:101A9000F8010020FC0000200C02002014020020AD
:101AA0001C0200202802002080B586B000AF634BE6
:101AB0001B780133DAB2614B1A70604B1B78322B02
:101AC00040F2B8805D4B00221A704FF47A715C4886
:101AD000FFF72FFA4FF47A715A48FFF72AFA4FF4BA
:101AE0007A715948FFF725FA4FF47A715748FFF792
:101AF00020FA534B1B8A184600F02AF90346FB8252
:101B0000504B1B8A184600F023F90346BB824E4B0C
:101B10001B8A184600F08CF903467B824B4B1B8ACC
:101B2000184600F085F903463B82B7F916301B12C0
:101B30001BB2DAB2464B1A70FB8ADAB2444B5A70C7
:101B4000B7F914301B121BB2DAB2414B9A70BB8A40
:101B5000DAB23F4BDA70B7F912301B121BB2DAB2AD
:101B60003B4B1A717B8ADAB2394B5A71B7F9103094
:101B70001B121BB2DAB2364B9A713B8ADAB2344B83
:101B8000DA71082232494FF48060FFF747FA4FF4C8
:101B90007A713048FFF7CDF94FF47A712E48FFF78C
:101BA000C8F92C4B1B8A184600F05EF80346FB81EF
:101BB000294B1B8A184600F057F80346BB81FB8966
:101BC0001B0A9BB2DAB2224B1A70FB89DAB2204BA5
:101BD0005A70BB891B0A9BB2DAB21D4B9A70BB8943
:101BE000DAB21B4BDA700422194940F20240FFF7C7
:101BF00015FA1A4800F0CDF9B860194800F0C9F993
:101C00007860BB681B0ADAB2114B1A70BB68DAB293
:101C10000F4B5A707B681B0ADAB20D4B9A707B68C7
:101C2000DAB20B4BDA700422094940F20140FFF7A7
:101C3000F5F900E000BF1837BD4680BD3402002032
:101C4000440100205801002094010020A801002038
:101C5000380200206C010020800100201C020020BE
:101C6000280200200000000080B584B000AF0346C9
:101C7000FB80FB881846FFF7A3F803461846FEF7DB
:101C80007FFC27A3D3E90023FEF7D2FC02460B46D4
:101C90001046194624A3D3E90023FEF7F3FD0246BC
:101CA0000B4610461946FEF785FF0346FB60F868B1
:101CB000FEF766FC4FF00002234BFEF7E3FD024601
:101CC0000B46104619461AA3D3E90023FEF7FAFA89
:101CD00002460B461046194617A3D3E90023FEF728
:101CE000D1FD02460B461046194615A3D3E9002341
:101CF000FEF79EFC02460B4610461946FEF75AFFB9
:101D00000346BB601149B868FEF722FA034618463D
:101D1000FFF7D4F803469BB218461037BD4680BD86
:101D2000B4D934E70C684A3F4A9593543949E53FA2
:101D3000255987A3AB74873F54B252F7B7BA723FA5
:101D400010B056ED9A90C23F000014400000C84207
:101D500080B584B000AF0346FB80FB881846FEF7D1
:101D6000FDFB25A3D3E90023FEF762FC02460B46E8
:101D70001046194622A3D3E90023FEF783FD02464D
:101D80000B461046194603F0CBFA1FA3D3E90023F4
:101D9000FEF74EFC02460B46104619461CA3D3E93B
:101DA0000023FEF78DFA02460B46104619461AA389
:101DB000D3E90023FEF784FA02460B461046194683
:101DC00017A3D3E90023FEF75DFD02460B4610463C
:101DD0001946FEF7EFFE0346FB601349F868FEF76D
:101DE000B7F903461846FFF743F803461BB21846F7
:101DF0001037BD4680BD00BF683F524486D509C03C
:101E00000000000000FEAF40AA8251499DD058401A
:101E10003A234A7B837F35405C8FC2F5285C0940BA
:101E2000EA95B20C712CF03F000020410000000048
:101E30002DE9B04384B000AF0346FB80FB88184611
:101E4000FEF78CFB22A3D3E90023FEF7F1FB024649
:101E50000B4621A1D1E90001FEF732FA02460B46FA
:101E600014461D46FB881846FEF778FB1CA3D3E9F1
:101E70000023FEF7DDFB02460B4690469946FB88A1
:101E80001846FEF76BFB02460B4640464946FEF7F6
:101E9000CFFB02460B4620462946FEF713FA0246C0
:101EA0000B4610461946FEF785FE0346FB600E49B9
:101EB000F868FEF74DF903461846FEF7D9FF0346CA
:101EC0001BB218461037BD46BDE8B083AFF30080A3
:101ED0008A27D436729BA23F02B7EEE6A9D65440B9
:101EE000AC8F5D6384E9CC3E0000204180B582B0B8
:101EF00000AF0346FB71FB7919460348FFF77EFBF1
:101F000000BF0837BD4680BD1402002080B582B0F6
:101F100000AF0346FB71FB7919460348FFF76EFBE0
:101F200000BF0837BD4680BD0C02002080B483B0DE
:101F300000AF0346FB80FB88102B02D0402B06D05D
:101F40000BE0084B9B680133064A936005E0064BA3
:101F50009B680133044A936000BF00BF0C37BD4645
:101F600080BC70471C0200202802002080B582B08F
:101F700000AF78607B6800225A607B6800229A601C
:101F800000F0B0F802467B681A6000BF0837BD4613
:101F900080BD80B586B000AF786000F0A3F83861EE
:101FA0007B681B683A69D31A7B617B69002B01D17E
:101FB00001237B617B689A687B685B68D31A4FF466
:101FC0007A7203FB02F27B69B2FBF3F3FB607B687E
:101FD0009A687B685A607B683A691A60FB681846A1
:101FE0001837BD4680BD0000FFF7C9FC0B480C49FF
:101FF0000C4A002302E0D458C4500433C4188C4265
:10200000F9D3094A094C002301E013600432A242CB
:10201000FBD303F061F9FFF7E1F8704700000020FF
:102020005C000020685700085C0000207C03002052
:10203000FEE7000080B500AF084B1B68074A43F07D
:1020400010031360032001F0C3FB0F2000F008F819
:10205000FFF72AFB0023184680BD00BF0020024086
:1020600080B582B000AF7860124B1A68124B1B78B3
:1020700019464FF47A73B3FBF1F3B2FBF3F318464E
:1020800001F0DBFB0346002B01D001230EE07B684F
:102090000F2B0AD8002279684FF0FF3001F0A3FB24
:1020A000064A7B681360002300E0012318460837C6
:1020B000BD4680BD00000020080000200400002074
:1020C00080B400AF054B1B781A46054B1B681344C0
:1020D000034A136000BFBD4680BC70470800002063
:1020E0004002002080B400AF024B1B681846BD467A
:1020F00080BC70474002002080B586B000AF786099
:102100000023FB7500233B610023BB600023FB60C1
:102110007B68002B01D10123BEE07B689B68002B0C
:102120007B689B6A002B09D17B680022DA627B689E
:10213000002283F824207868FFF7E8FA786800F036
:10214000C5FB0346FB757B689B6A03F01003002BFD
:1021500040F09980FB7D002B40F095807B689B6A66
:1021600023F4885323F0020343F002027B689A624F
:102170007B685A687B68DB691A437B681B7B5B0062
:102180001343BA681343BB607B689B68B3F5807FD9
:1021900003D07B689B68012B02D14FF4807300E071
:1021A00000233A6913433B617B681B7D012B19D1E6
:1021B0007B681B7B002B09D17B689B69013B5A0321
:1021C0003B69134343F400633B610BE07B689B6A0C
:1021D00043F020027B689A627B68DB6A43F001026D
:1021E0007B68DA627B681B685B6823F469417B6803
:1021F0001B683A690A435A607B681B689A68284BD7
:1022000013407A681268B9680B4393607B689B68D7
:10221000B3F5807F03D07B689B68012B04D17B687A
:102220001B69013B1B05FB607B681B68DB6A23F4B1
:1022300070017B681B68FA680A43DA627B681B6876
:102240009A68184B1340BA689A420BD17B680022F7
:10225000DA627B689B6A23F0030343F001027B6828
:102260009A6218E07B689B6A23F0120343F0100225
:102270007B689A627B68DB6A43F001027B68DA6202
:102280000123FB7507E07B689B6A43F010027B68C3
:102290009A620123FB75FB7D18461837BD4680BD49
:1022A000FDF7E1FFFE0E1FFF80B584B000AF786040
:1022B0000023FB737B6893F82430012B01D10223A8
:1022C00098E07B68012283F82420786800F0A4FA63
:1022D0000346FB73FB7B002B40F087807B689B6A87
:1022E00023F4407323F0010343F480727B689A6205
:1022F0007B681B68414A934205D1414B5B6803F4FC
:102300007023002B15D17B689B6A23F480127B68B5
:102310009A627B681B685B6803F48063002B26D09D
:102320007B689B6A23F4405343F480527B689A6233
:102330001DE07B689B6A43F480127B689A627B682D
:102340001B682F4A934204D07B681B682B4A934238
:102350000DD12B4B5B6803F48063002B07D07B68A7
:102360009B6A23F4405343F480527B689A627B68F3
:102370009B6A03F48053002B06D07B68DB6A23F052
:1023800006027B68DA6202E07B680022DA627B6820
:10239000002283F824207B681B686FF002021A6019
:1023A0007B681B689B6803F46023B3F5602F13D12F
:1023B0007B681B68114A934205D1114B5B6803F49B
:1023C0007023002B08D17B681B689A687B681B68A8
:1023D00042F4A0029A600CE07B681B689A687B68F4
:1023E0001B6842F480129A6003E07B68002283F845
:1023F0002420FB7B18461037BD4680BD00280140D5
:102400000024014090B587B000AF786039600023A8
:102410007B610023FB6000233B61FFF763FE786173
:102420007B681B689B6803F48073002B0BD07B6870
:102430009B6A43F020027B689A627B68002283F8E3
:1024400024200123D3E07B681B685B6803F480735E
:10245000002B31D17B681B68DB6A03F47003002B0F
:102460002AD121E03B68B3F1FF3F1DD03B68002B30
:1024700007D0FFF737FE02467B69D31A3A689A42C3
:1024800012D27B681B681B6803F00203002B0BD180
:102490007B689B6A43F004027B689A627B68002237
:1024A00083F824200323A2E07B681B681B6803F0E9
:1024B0000203002BD6D070E04F4B1C68022002F0C4
:1024C00031F80346B4FBF3F27B681B6819694B4B88
:1024D0000B40002B18D17B681B68D968484B0B4018
:1024E000002B11D17B681B681969464B0B40002BF0
:1024F00008D17B681B68D968434B0B40002B01D186
:10250000142320E029231EE07B681B6819693D4BDA
:102510000B40002B06D17B681B68D9683A4B0B40F7
:10252000002B0DD07B681B681969384B0B40002BC2
:1025300008D17B681B68D968344B0B40002B01D154
:10254000542300E0FC2302FB03F33B6121E03B68E2
:10255000B3F1FF3F1AD03B68002B07D0FFF7C2FD55
:1025600002467B69D31A3A689A420FD2FB683A69ED
:102570009A420BD97B689B6A43F004027B689A629B
:102580007B68002283F82420032330E0FB680133BA
:10259000FB60FB683A699A42D9D87B681B686FF088
:1025A00012021A607B689B6A43F400727B689A622D
:1025B0007B681B689B6803F46023B3F5602F15D11B
:1025C0007B681B7B002B11D17B689B6A23F4807294
:1025D0007B689A627B689B6A03F48053002B05D169
:1025E0007B689B6A43F001027B689A62002318466D
:1025F0001C37BD4690BD00BF000000202449922436
:1026000024499200922449129224490049922400BC
:1026100080B483B000AF78607B681B68DB6C1846C1
:102620000C37BD4680BC704780B485B000AF786081
:1026300039600023FB730023BB607B6893F8243070
:10264000012B01D10223DCE07B68012283F82420E6
:102650003B685B68062B1CD87B681B68596B3B6822
:102660005A6813469B001344053B1F2202FA03F3EA
:10267000DB4319403B6818683B685A6813469B0067
:102680001344053B00FA03F27B681B680A435A6354
:102690003CE03B685B680C2B1CD87B681B68196BA3
:1026A0003B685A6813469B001344233B1F2202FADF
:1026B00003F3DB4319403B6818683B685A681346CC
:1026C0009B001344233B00FA03F27B681B680A4318
:1026D0001A631BE07B681B68D96A3B685A6813461B
:1026E0009B001344413B1F2202FA03F3DB431940D2
:1026F0003B6818683B685A6813469B001344413B8B
:1027000000FA03F27B681B680A43DA623B681B68C5
:10271000092B1CD97B681B68D9683B681A6813466B
:102720005B0013441E3B072202FA03F3DB4319400C
:102730003B6898683B681A6813465B0013441E3B6D
:1027400000FA03F27B681B680A43DA6019E07B68D1
:102750001B6819693B681A6813465B00134407221B
:1027600002FA03F3DB4319403B6898683B681A6838
:1027700013465B00134400FA03F27B681B680A43AC
:102780001A613B681B68102B03D03B681B68112B38
:1027900032D17B681B681D4A934225D17B681B6838
:1027A0009B6803F40003002B26D17B681B689A68A2
:1027B0007B681B6842F400029A603B681B68102B20
:1027C0001AD1134B1B68134AA2FB03239A0C13461E
:1027D0009B0013445B00BB6002E0BB68013BBB6035
:1027E000BB68002BF9D107E07B689B6A43F02002AD
:1027F0007B689A620123FB737B68002283F82420A4
:10280000FB7B18461437BD4680BC7047002401404E
:102810000000002083DE1B4380B584B000AF7860E9
:102820000023FB600023BB607B681B689B6803F090
:102830000103012B40D07B681B689A687B681B688A
:1028400042F001029A601F4B1B681F4AA2FB032340
:102850009B0CBB6002E0BB68013BBB60BB68002B0C
:10286000F9D1FFF73FFCF8601FE0FFF73BFC0246A1
:10287000FB68D31A022B18D97B681B689B6803F08E
:102880000103012B11D07B689B6A43F010027B6827
:102890009A627B68DB6A43F001027B68DA627B68DC
:1028A000002283F82420012307E07B681B689B68D3
:1028B00003F00103012BD8D1002318461037BD4681
:1028C00080BD00BF0000002083DE1B4380B584B0C4
:1028D00000AF78600023FB607B681B689B6803F097
:1028E0000103012B2ED17B681B689A687B681B68EB
:1028F00022F001029A60FFF7F5FBF8601BE0FFF79A
:10290000F1FB0246FB68D31A022B14D97B681B68C3
:102910009B6803F00103012B0DD17B689B6A43F098
:1029200010027B689A627B68DB6A43F001027B6875
:10293000DA62012307E07B681B689B6803F00103F0
:10294000012BDCD0002318461037BD4680BD80B572
:1029500084B000AF78607B68002B01D10123EDE0EB
:102960007B6893F82030DBB2002B02D17868FEF749
:1029700021FF7B681B681A687B681B6842F00102B4
:102980001A60FFF7AFFBF86012E0FFF7ABFB0246FF
:10299000FB68D31A0A2B0BD97B685B6A43F40032BD
:1029A0007B685A627B68052283F820200123C5E0FA
:1029B0007B681B685B6803F00103002BE5D07B6834
:1029C0001B681A687B681B6822F002021A60FFF716
:1029D00089FBF86012E0FFF785FB0246FB68D31A1B
:1029E0000A2B0BD97B685B6A43F400327B685A621E
:1029F0007B68052283F8202001239FE07B681B6809
:102A00005B6803F00203002BE5D17B681B7E012B82
:102A100008D17B681B681A687B681B6842F08002DB
:102A20001A6007E07B681B681A687B681B6822F0E5
:102A300080021A607B685B7E012B08D17B681B6873
:102A40001A687B681B6842F040021A6007E07B68E6
:102A50001B681A687B681B6822F040021A607B685A
:102A60009B7E012B08D17B681B681A687B681B68FA
:102A700042F020021A6007E07B681B681A687B68D6
:102A80001B6822F020021A607B68DB7E012B08D1D4
:102A90007B681B681A687B681B6822F010021A604A
:102AA00007E07B681B681A687B681B6842F01002AD
:102AB0001A607B681B7F012B08D17B681B681A6832
:102AC0007B681B6842F008021A6007E07B681B689D
:102AD0001A687B681B6822F008021A607B685B7FBB
:102AE000012B08D17B681B681A687B681B6842F061
:102AF00004021A6007E07B681B681A687B681B6821
:102B000022F004021A607B689A687B68DB681A43CB
:102B10007B681B691A437B685B6942EA03017B6837
:102B20005B685A1E7B681B680A43DA617B68002277
:102B30005A627B68012283F8202000231846103750
:102B4000BD4680BD80B487B000AF786039607B68D7
:102B50001B687B617B6893F82030FB74FB7C012B46
:102B600003D0FB7C022B40F0AA807B69D3F80032B3
:102B700043F001027B69C3F800223B685B6903F004
:102B80001F03012202FA03F3FB607B69D3F81C22C6
:102B9000FB68DB431A407B69C3F81C223B68DB6996
:102BA000002B23D17B69D3F80C22FB68DB431A404E
:102BB0007B69C3F80C223B68DB6819043B685B68DF
:102BC0009BB23A68526919437B69483243F8321024
:102BD0003B689B6819043B681B689AB23B685B6959
:102BE0000A4379694833DB000B445A603B68DB6970
:102BF000012B22D17B69D3F80C22FB681A437B6935
:102C0000C3F80C223B681B6819043B685B689BB2E5
:102C10003A68526919437B69483243F832103B687D
:102C20009B6819043B68DB689AB23B685B690A439E
:102C300079694833DB000B445A603B689B69002B81
:102C400009D17B69D3F80422FB68DB431A407B6916
:102C5000C3F8042207E07B69D3F80422FB681A4317
:102C60007B69C3F804223B681B69002B09D17B698F
:102C7000D3F81422FB68DB431A407B69C3F81422A3
:102C800007E07B69D3F81422FB681A437B69C3F819
:102C900014223B681B6A012B07D17B69D3F81C22E5
:102CA000FB681A437B69C3F81C227B69D3F80032A6
:102CB00023F001027B69C3F80022002306E07B6851
:102CC0005B6A43F480227B685A62012318461C37F2
:102CD000BD4680BC704780B584B000AF78607B682B
:102CE00093F82030DBB2012B2ED17B68022283F8CF
:102CF00020207B681B681A687B681B6822F0010231
:102D00001A60FFF7EFF9F86012E0FFF7EBF90246FF
:102D1000FB68D31A0A2B0BD97B685B6A43F4003239
:102D20007B685A627B68052283F82020012312E029
:102D30007B681B685B6803F00103002BE5D17B68AF
:102D400000225A62002306E07B685B6A43F400229B
:102D50007B685A62012318461037BD4680BD80B497
:102D600089B000AFF860B9607A603B60FB6893F8A7
:102D70002030FB77FB681B689B68BB61FB7F012BE6
:102D800003D0FB7F022B40F0AD80BB6903F0806372
:102D9000002B0AD1BB6903F00063002B05D1BB698E
:102DA00003F08053002B00F09580BB691B0E03F0ED
:102DB00003037B6101227B699A403B681A60BB6810
:102DC0009B68002B0DD1BB681B685A05BB68DB688C
:102DD000F96809681A437B6918331B010B441A60B0
:102DE0000FE0BB685B68DA00BB689B681A43BB688E
:102DF000DB68F96809681A437B6918331B010B44C7
:102E00001A60FB681968BB681A697B6918331B0173
:102E10000B4404331A60BB681B7D012B11D1FB6886
:102E20001A687B6918331B01134404331B68FA6862
:102E3000116843F480727B6918331B010B4404331F
:102E40001A607B6807331B781A067B6806331B7889
:102E50001B041A437B6805331B781B0213437A68F3
:102E6000043212781046FA68116843EA00027B695E
:102E70001B010B4403F5C6731A607B6803331B7890
:102E80001A067B6802331B781B041A437B680133E4
:102E90001B781B0213437A6812781046FA6811688F
:102EA00043EA00027B691B010B4403F5C4731A60FB
:102EB000FB681A687B6918331B0113441B68FA68A6
:102EC000116843F001027B6918331B010B441A603F
:102ED00000230EE0FB685B6A43F40012FB685A6251
:102EE000012306E0FB685B6A43F48022FB685A62B8
:102EF000012318462437BD4680BC704780B485B096
:102F000000AF78600023FB607B6893F82030FB7291
:102F1000FB7A012B02D0FB7A022B1DD17B681B6848
:102F20009B6803F08063002B02D0FB680133FB60D9
:102F30007B681B689B6803F00063002B02D0FB6872
:102F40000133FB607B681B689B6803F08053002B98
:102F500002D0FB680133FB60FB6818461437BD469E
:102F600080BC704780B487B000AFF860B9607A6009
:102F70003B60FB6893F82030FB75FB7D012B03D091
:102F8000FB7D022B40F00381BB68002B0ED1FB6858
:102F90001B68DB6803F00303002B16D1FB685B6A38
:102FA00043F40012FB685A620123F7E0FB681B68D8
:102FB0001B6903F00303002B07D1FB685B6A43F432
:102FC0000012FB685A620123E8E0FB681A68BB68DC
:102FD0001B331B0113441B6803F004027B689A60D7
:102FE0007B689B68002B0CD1FB681A68BB681B339D
:102FF0001B0113441B685B0DC3F30A027B681A6054
:103000000BE0FB681A68BB681B331B0113441B6889
:10301000DB0823F060427B685A60FB681A68BB6873
:103020001B331B0113441B6803F002027B68DA6048
:10303000FB681A68BB681B331B01134404331B680D
:1030400003F00803002B03D07B6808221A610BE011
:10305000FB681A68BB681B331B01134404331B68ED
:1030600003F00F027B681A61FB681A68BB681B33A8
:103070001B01134404331B681B0ADAB27B689A6194
:10308000FB681A68BB681B331B01134404331B68BD
:103090001B0C9AB27B685A61FB681A68BB681B01FB
:1030A000134403F5DC731B68DAB23B681A70FB68E3
:1030B0001A68BB681B01134403F5DC731B681A0A0A
:1030C0003B680133D2B21A70FB681A68BB681B01F7
:1030D000134403F5DC731B681A0C3B680233D2B24D
:1030E0001A70FB681A68BB681B01134403F5DC7394
:1030F0001B681A0E3B680333D2B21A70FB681A6859
:10310000BB681B01134403F5DE731A683B68043384
:10311000D2B21A70FB681A68BB681B01134403F52E
:10312000DE731B681A0A3B680533D2B21A70FB685B
:103130001A68BB681B01134403F5DE731B681A0C85
:103140003B680633D2B21A70FB681A68BB681B0171
:10315000134403F5DE731B681A0E3B680733D2B2C3
:103160001A70BB68002B08D1FB681B68DA68FB6823
:103170001B6842F02002DA6007E0FB681B681A69EE
:10318000FB681B6842F020021A61002306E0FB681E
:103190005B6A43F48022FB685A62012318461C379D
:1031A000BD4680BC704780B485B000AF78603960A0
:1031B0007B6893F82030FB73FB7B012B02D0FB7BF9
:1031C000022B09D17B681B6859697B681B683A68C8
:1031D0000A435A61002306E07B685B6A43F480225D
:1031E0007B685A62012318461437BD4680BC70477D
:1031F00080B58AB000AF786000237B627B681B6873
:103200005B693B627B681B685B68FB617B681B6872
:103210009B68BB617B681B68DB687B617B681B68A4
:103220001B693B617B681B689B69FB603B6A03F021
:103230000103002B7CD0BB6903F00103002B23D0DA
:103240007B681B6801229A60BB6903F00203002BB4
:1032500003D0786800F083F916E0BB6903F004033B
:10326000002B04D07B6A43F400637B620CE0BB69F3
:1032700003F00803002B04D07B6A43F480537B6285
:1032800002E0786800F086F9BB6903F48073002BD4
:1032900024D07B681B684FF480729A60BB6903F48A
:1032A0000073002B03D0786800F062F916E0BB6968
:1032B00003F48063002B04D07B6A43F400537B62E9
:1032C0000CE0BB6903F40063002B04D07B6A43F479
:1032D00080437B6202E0786800F065F9BB6903F423
:1032E0008033002B24D07B681B684FF480329A60B7
:1032F000BB6903F40033002B03D0786800F041F978
:1033000016E0BB6903F48023002B04D07B6A43F4EE
:1033100000437B620CE0BB6903F40023002B04D064
:103320007B6A43F480337B6202E0786800F044F902
:103330003B6A03F00803002B0CD07B6903F01003F9
:10334000002B07D07B6A43F400737B627B681B68A9
:103350001022DA603B6A03F00403002B0BD07B6978
:1033600003F00803002B06D07B681B680822DA6094
:10337000786800F02AF93B6A03F00203002B09D0B9
:103380007B681B68DB6803F00303002B02D07868BE
:10339000FDF770FE3B6A03F04003002B0CD03B6945
:1033A00003F01003002B07D07B6A43F480637B6239
:1033B0007B681B6810221A613B6A03F02003002B14
:1033C0000BD03B6903F00803002B06D07B681B6819
:1033D00008221A61786800F00AF93B6A03F01003CA
:1033E000002B09D07B681B681B6903F00303002BCB
:1033F00002D0786800F0F2F83B6A03F40033002B47
:103400000BD0FB6903F01003002B06D07B681B6810
:1034100010225A60786800F0F3F83B6A03F48033B6
:10342000002B0BD0FB6903F00803002B06D07B6850
:103430001B6808225A60786800F0EBF83B6A03F4D6
:103440000043002B7BD0FB6903F00403002B72D0F8
:103450003B6A03F48073002B08D0FB6803F0010380
:10346000002B03D07B6A43F001037B623B6A03F4C9
:103470000073002B08D0FB6803F00203002B03D07D
:103480007B6A43F002037B623B6A03F48063002B98
:1034900008D0FB6803F00403002B03D07B6A43F0E1
:1034A00004037B623B6A03F40063002B43D0FB6898
:1034B00003F07003002B3ED0FB6803F07003602B19
:1034C0002BD0602B2ED8502B22D0502B2AD8402B1B
:1034D00019D0402B26D8302B10D0302B22D8102BCF
:1034E00002D0202B05D01DE07B6A43F008037B62ED
:1034F00019E07B6A43F010037B6214E07B6A43F0BF
:1035000020037B620FE07B6A43F040037B620AE0AA
:103510007B6A43F080037B6205E07B6A43F480733F
:103520007B6200E000BF7B681B689A697B681B6850
:1035300022F070029A617B681B6804225A607B6AE1
:10354000002B08D07B685A6A7B6A1A437B685A62F0
:10355000786800F067F800BF2837BD4680BD80B4AA
:1035600083B000AF786000BF0C37BD4680BC7047A9
:1035700080B483B000AF786000BF0C37BD4680BC1C
:10358000704780B483B000AF786000BF0C37BD4691
:1035900080BC704780B483B000AF786000BF0C3748
:1035A000BD4680BC704780B483B000AF786000BF78
:1035B0000C37BD4680BC704780B483B000AF7860E4
:1035C00000BF0C37BD4680BC704780B483B000AFED
:1035D000786000BF0C37BD4680BC704780B483B0B4
:1035E00000AF786000BF0C37BD4680BC704780B428
:1035F00083B000AF786000BF0C37BD4680BC704719
:1036000080B483B000AF786000BF0C37BD4680BC8B
:10361000704780B483B000AF786000BF0C37BD4600
:1036200080BC704780B483B000AF786000BF0C37B7
:10363000BD4680BC7047000080B485B000AF7860A4
:103640007B6803F00703FB600C4BDB68BB60BA6868
:103650004FF6FF031340BB60FB681A02BB681343BD
:1036600043F0BF6343F40033BB60044ABB68D360DC
:1036700000BF1437BD4680BC704700BF00ED00E0BE
:1036800080B400AF044BDB681B0A03F00703184645
:10369000BD4680BC704700BF00ED00E080B483B041
:1036A00000AF0346FB7197F90730002B0BDBFB796A
:1036B00003F01F02064997F907305B09012000FA61
:1036C00002F241F8232000BF0C37BD4680BC704792
:1036D00000E100E080B483B000AF03463960FB71C5
:1036E00097F90730002B0ADB3B68DAB20C4997F9EF
:1036F00007301201D2B20B4483F800230AE03B6882
:10370000DAB20849FB7903F00F03043B1201D2B28D
:103710000B441A7600BF0C37BD4680BC704700BF13
:1037200000E100E000ED00E080B489B000AFF86097
:10373000B9607A60FB6803F00703FB61FB69C3F1C2
:103740000703042B28BF0423BB61FB690433062B4A
:1037500002D9FB69033B00E000237B614FF0FF329D
:10376000BB6902FA03F3DA43BB681A407B699A40EB
:103770004FF0FF317B6901FA03F3D9437B680B40BB
:10378000134318462437BD4680BC704780B582B0CD
:1037900000AF78607B68013BB3F1807F01D30123E8
:1037A0000FE00A4A7B68013B53600F214FF0FF3066
:1037B000FFF790FF054B00229A60044B07221A6026
:1037C000002318460837BD4680BD00BF10E000E06A
:1037D00080B582B000AF78607868FFF72DFF00BF3A
:1037E0000837BD4680BD80B586B000AF0346B960DE
:1037F0007A60FB7300237B61FFF742FF78617A6890
:10380000B9687869FFF790FF024697F90F301146C3
:103810001846FFF75FFF00BF1837BD4680BD80B573
:1038200082B000AF0346FB7197F907301846FFF7E7
:1038300035FF00BF0837BD4680BD80B582B000AF00
:1038400078607868FFF7A2FF034618460837BD4640
:1038500080BD000080B48BB000AF78603960002379
:103860007B6200233B6269E101227B6A02FA03F377
:10387000FB613B681B68FA691340BB61BA69FB696D
:103880009A4240F058813B685B689A4A93425ED006
:10389000984A934275D8984A934258D0964A934290
:1038A0006FD8964A934252D0944A934269D8944A28
:1038B00093424CD0924A934263D8924A934246D064
:1038C000904A93425DD8122B2AD8122B59D801A2C4
:1038D00052F823F04F390008293900083B39000815
:1038E0007D390008833900088339000883390008CE
:1038F00083390008833900088339000883390008B8
:1039000083390008833900088339000883390008A7
:103910008339000883390008313900084539000827
:10392000794A934213D02CE03B68DB683B6229E084
:103930003B68DB6804333B6224E03B68DB680833A8
:103940003B621FE03B68DB680C333B621AE03B687C
:103950009B68002B02D104233B6213E03B689B6809
:10396000012B05D108233B627B68FA691A6109E0E3
:1039700008233B627B68FA695A6103E000233B62DB
:1039800000E000BFBB69FF2B01D87B6801E07B68CA
:1039900004337B61BB69FF2B02D87B6A9B0002E08A
:1039A0007B6A083B9B003B617B691A680F213B697E
:1039B00001FA03F3DB431A40396A3B6901FA03F366
:1039C0001A437B691A603B685B6803F08053002BE5
:1039D00000F0B1804D4B9B694C4A43F00103936169
:1039E0004A4B9B6903F00103BB60BB68484A7B6A92
:1039F0009B08023352F82330FB607B6A03F0030319
:103A00009B000F2202FA03F3DB43FA681340FB60CA
:103A10007B68404A934213D07B683F4A93420DD063
:103A20007B683E4A934207D07B683D4A934201D16E
:103A3000032306E0042304E0022302E0012300E064
:103A400000237A6A02F0030292009340FA6813435B
:103A5000FB602F497B6A9B080233FA6841F82320F8
:103A60003B685B6803F48013002B06D02D4B9A68EB
:103A70002C49BB6913438B6006E02A4B9A68BB69EB
:103A8000DB43284913408B603B685B6803F40013F9
:103A9000002B06D0234BDA682249BB691343CB6065
:103AA00006E0204BDA68BB69DB431E491340CB605C
:103AB0003B685B6803F40033002B06D0194B5A684F
:103AC0001849BB6913434B6006E0164B5A68BB6943
:103AD000DB43144913404B603B685B6803F480335D
:103AE000002B21D00F4B1A680E49BB6913430B60A2
:103AF00021E000BF00003210000031100000221051
:103B000000002110000012100000111000100240EF
:103B10000000014000080140000C0140001001407D
:103B200000140140000401400B4B1A68BB69DB43E1
:103B3000094913400B607B6A01337B623B681A685A
:103B40007B6A22FA03F3002B7FF48EAE00BF00BF26
:103B50002C37BD4680BC70470004014080B483B060
:103B600000AF78600B467B8013467B707B78002B20
:103B700003D07A887B681A6103E07B881A047B682B
:103B80001A6100BF0C37BD4680BC704780B582B05B
:103B900000AF0346FB80084B5A69FB881340002B9B
:103BA00006D0054AFB885361FB881846FEF7BEF92C
:103BB00000BF0837BD4680BD0004014080B586B017
:103BC00000AF78607B68002B01D1012372E27B6833
:103BD0001B6803F00103002B00F08780924B5B68A9
:103BE00003F00C03042B0CD08F4B5B6803F00C0329
:103BF000082B12D18C4B5B6803F48033B3F5803F04
:103C00000BD1894B1B6803F40033002B6CD07B680D
:103C10005B68002B68D101234CE27B685B68B3F5DD
:103C2000803F06D1804B1B687F4A43F4803313608A
:103C30002EE07B685B68002B0CD17B4B1B687A4ABB
:103C400023F480331360784B1B68774A23F4802376
:103C500013601DE07B685B68B3F5A02F0CD1724B3D
:103C60001B68714A43F4802313606F4B1B686E4AD4
:103C700043F4803313600BE06B4B1B686A4A23F4F8
:103C800080331360684B1B68674A23F480231360FA
:103C90007B685B68002B13D0FEF724FA386108E0DC
:103CA000FEF720FA02463B69D31A642B01D903239D
:103CB00000E25D4B1B6803F40033002BF0D014E0EE
:103CC000FEF710FA386108E0FEF70CFA02463B698D
:103CD000D31A642B01D90323ECE1534B1B6803F483
:103CE0000033002BF0D100E000BF7B681B6803F0BD
:103CF0000203002B63D04C4B5B6803F00C03002BDA
:103D00000BD0494B5B6803F00C03082B1CD1464BCE
:103D10005B6803F48033002B16D1434B1B6803F020
:103D20000203002B05D07B681B69012B01D0012306
:103D3000C0E13D4B1B6823F0F8027B685B69DB0048
:103D4000394913430B603AE07B681B69002B20D094
:103D5000364B01221A60FEF7C5F9386108E0FEF71C
:103D6000C1F902463B69D31A022B01D90323A1E111
:103D70002D4B1B6803F00203002BF0D02A4B1B686D
:103D800023F0F8027B685B69DB00274913430B6073
:103D900015E0264B00221A60FEF7A4F9386108E00E
:103DA000FEF7A0F902463B69D31A022B01D903237F
:103DB00080E11D4B1B6803F00203002BF0D17B68F0
:103DC0001B6803F00803002B3AD07B689B69002B2B
:103DD00019D0174B01221A60FEF784F9386108E008
:103DE000FEF780F902463B69D31A022B01D903235F
:103DF00060E10D4B5B6A03F00203002BF0D0012061
:103E000000F0BCFA1CE00A4B00221A60FEF76AF9C7
:103E100038610FE0FEF766F902463B69D31A022BC0
:103E200008D9032346E100BF0010024000004242CF
:103E300080044242924B5B6A03F00203002BE9D1FB
:103E40007B681B6803F00403002B00F0A6800023AE
:103E5000FB758B4BDB6903F08053002B0DD1884B36
:103E6000DB69874A43F08053D361854BDB6903F0FC
:103E70008053BB60BB680123FB75824B1B6803F456
:103E80008073002B18D17F4B1B687E4A43F48073EC
:103E90001360FEF727F9386108E0FEF723F90246C0
:103EA0003B69D31A642B01D9032303E1754B1B68CB
:103EB00003F48073002BF0D07B68DB68012B06D104
:103EC0006F4B1B6A6E4A43F0010313622DE07B685F
:103ED000DB68002B0CD16A4B1B6A694A23F0010393
:103EE0001362674B1B6A664A23F0040313621CE0EB
:103EF0007B68DB68052B0CD1614B1B6A604A43F081
:103F0000040313625E4B1B6A5D4A43F001031362B4
:103F10000BE05B4B1B6A5A4A23F001031362584BB8
:103F20001B6A574A23F0040313627B68DB68002B8B
:103F300015D0FEF7D7F838610AE0FEF7D3F802464D
:103F40003B69D31A41F28832934201D90323B1E08D
:103F50004B4B1B6A03F00203002BEED014E0FEF77C
:103F6000C1F838610AE0FEF7BDF802463B69D31A92
:103F700041F28832934201D903239BE0404B1B6AF4
:103F800003F00203002BEED1FB7D012B05D13C4B4E
:103F9000DB693B4A23F08053D3617B68DB69002BEC
:103FA00000F08780364B5B6803F00C03082B61D070
:103FB0007B68DB69022B46D1334B00221A60FEF787
:103FC00091F8386108E0FEF78DF802463B69D31A94
:103FD000022B01D903236DE0294B1B6803F000730A
:103FE000002BF0D17B681B6AB3F5803F08D1244BCE
:103FF0005B6823F400327B689B68214913434B6064
:104000001F4B5B6823F474127B68196A7B685B6AD8
:104010000B431B4913434B601B4B01221A60FEF7F5
:1040200061F8386108E0FEF75DF802463B69D31A93
:10403000022B01D903233DE0114B1B6803F00073F1
:10404000002BF0D035E0104B00221A60FEF74AF842
:10405000386108E0FEF746F802463B69D31A022BA6
:1040600001D9032326E0064B1B6803F00073002BE5
:10407000F0D11EE07B68DB69012B07D1012319E039
:104080000010024000700040600042420B4B5B6831
:10409000FB60FB6803F480327B681B6A9A4206D19E
:1040A000FB6803F470127B685B6A9A4201D00123BB
:1040B00000E0002318461837BD4680BD00100240BE
:1040C00080B584B000AF786039607B68002B01D187
:1040D0000123D0E06A4B1B6803F007033A689A4259
:1040E00010D9674B1B6823F0070265493B681343EF
:1040F0000B60634B1B6803F007033A689A4201D0D8
:104100000123B8E07B681B6803F00203002B20D07A
:104110007B681B6803F00403002B05D0594B5B68D8
:10412000584A43F4E06353607B681B6803F008035C
:10413000002B05D0534B5B68524A43F460535360E5
:10414000504B5B6823F0F0027B689B684D4913433A
:104150004B607B681B6803F00103002B40D07B6839
:104160005B68012B07D1474B1B6803F40033002B1E
:1041700015D101237FE07B685B68022B07D1414B9F
:104180001B6803F00073002B09D1012373E03D4B42
:104190001B6803F00203002B01D101236BE0394BB4
:1041A0005B6823F003027B685B68364913434B600E
:1041B000FDF798FFF8600AE0FDF794FF0246FB6800
:1041C000D31A41F28832934201D9032353E02D4B95
:1041D0005B6803F00C027B685B689B009A42EBD142
:1041E000274B1B6803F007033A689A4210D2244B0E
:1041F0001B6823F0070222493B6813430B60204BE6
:104200001B6803F007033A689A4201D0012332E0A9
:104210007B681B6803F00403002B08D0194B5B6814
:1042200023F4E0627B68DB68164913434B607B68CC
:104230001B6803F00803002B09D0124B5B6823F4C2
:1042400060527B681B69DB000E4913434B6000F032
:1042500021F802460B4B5B681B0903F00F030A4968
:10426000CB5C22FA03F3094A1360094B1B6818461A
:10427000FDF7F6FE002318461037BD4680BD00BF8F
:104280000020024000100240F0560008000000200C
:104290000400002080B487B000AF0023FB6000233F
:1042A000BB6000237B6100237B6000233B611E4BCE
:1042B0005B68FB60FB6803F00C03042B02D0082B47
:1042C00003D027E0194B3B6127E0FB689B0C03F010
:1042D0000F03174AD35C7B60FB6803F48033002B29
:1042E00010D0114B5B685B0C03F00103114AD35CE7
:1042F000BB607B680D4A03FB02F2BB68B2FBF3F3C1
:104300007B6104E07B680C4A02FB03F37B617B6901
:104310003B6102E0094B3B6100BF3B6918461C371B
:10432000BD4680BC704700BF001002400024F4006E
:10433000085700081857000800093D0000127A00CD
:1043400080B400AF024B1B681846BD4680BC704766
:104350000000002080B500AFFFF7F2FF0246054BDA
:104360005B68DB0A03F007030349CB5C22FA03F323
:10437000184680BD001002400057000880B485B088
:1043800000AF78600A4B1B680A4AA2FB03235B0A52
:104390007A6802FB03F3FB6000BFFB685A1EFA60F9
:1043A000002BF9D100BF00BF1437BD4680BC704759
:1043B00000000020D34D621080B586B000AF786059
:1043C00000233B610023FB607B681B6803F0010353
:1043D000002B7DD00023FB754F4BDB6903F080532E
:1043E000002B0DD14C4BDB694B4A43F08053D3611A
:1043F000494BDB6903F08053BB60BB680123FB754D
:10440000464B1B6803F48073002B18D1434B1B6889
:10441000424A43F480731360FDF764FE386108E09C
:10442000FDF760FE02463B69D31A642B01D90323D2
:104430006DE03A4B1B6803F48073002BF0D0364BD1
:104440001B6A03F44073FB60FB68002B2ED07B6873
:104450005B6803F44073FA689A4227D02E4B1B6ABC
:1044600023F44073FB602E4B01221A602C4B002278
:104470001A60294AFB681362FB6803F00103002BF2
:1044800014D0FDF72FFE38610AE0FDF72BFE02463F
:104490003B69D31A41F28832934201D9032336E0B3
:1044A0001D4B1B6A03F00203002BEED01A4B1B6A54
:1044B00023F440727B685B68174913430B62FB7DF2
:1044C000012B05D1144BDB69134A23F08053D361D0
:1044D0007B681B6803F00203002B08D00E4B5B685F
:1044E00023F440427B689B680B4913434B607B6815
:1044F0001B6803F01003002B08D0074B5B6823F404
:1045000080027B68DB68044913434B600023184634
:104510001837BD4680BD00BF00100240007000404B
:104520004004424280B588B000AF786000237B61D0
:104530000023FB6100233B610023FB600023BB6180
:104540007B68102B0AD07B68102B00F289807B6877
:10455000012B45D07B68022B74D081E0454B5B6812
:10456000FB60444B1B6803F08073002B7AD0FB6820
:104570009B0C03F00F03404AD35C3B61FB6803F4E0
:104580008033002B15D03B4B5B685B0C03F00103C1
:104590003A4AD35C7B61FB6803F48033002B0DD077
:1045A000374A7B69B2FBF3F23B6902FB03F3FB6121
:1045B00004E03B69334A02FB03F3FB612D4B5B686C
:1045C00003F48003B3F5800F02D1FB69BB6149E0BE
:1045D000FB695B002C4AA2FB03235B08BB6141E043
:1045E000244B1B6AFB60FB6803F44073B3F5807FC8
:1045F00008D1FB6803F00203002B03D04FF4004303
:10460000BB611EE0FB6803F44073B3F5007F09D182
:10461000184B5B6A03F00203002B03D049F64043BA
:10462000BB610EE0FB6803F44073B3F5407F1BD120
:10463000104B1B6803F40033002B15D0134BBB61E8
:1046400012E011E0FFF786FE02460A4B5B689B0B07
:1046500003F0030301335B00B2FBF3F3BB6104E03F
:1046600000BF02E000BF00E000BFBB691846203772
:10467000BD4680BD001002401C5700082C570008A2
:104680000024F40000093D00ABAAAAAA48E80100F2
:1046900080B582B000AF78607B68002B01D1012328
:1046A00041E07B6893F83D30DBB2002B06D17B689C
:1046B000002283F83C207868FDF7E4F87B6802224A
:1046C00083F83D207B681A687B68043319461046DE
:1046D00000F0CEFA7B68012283F846207B68012235
:1046E00083F83E207B68012283F83F207B6801220B
:1046F00083F840207B68012283F841207B680122F7
:1047000083F842207B68012283F843207B680122E2
:1047100083F844207B68012283F845207B680122CE
:1047200083F83D20002318460837BD4680BD0000B1
:1047300080B584B000AF786039603B68002B09D148
:104740007B6893F83E30DBB2012B14BF01230023BA
:10475000DBB222E03B68042B09D17B6893F83F3041
:10476000DBB2012B14BF01230023DBB215E03B6851
:10477000082B09D17B6893F84030DBB2012B14BFC2
:1047800001230023DBB208E07B6893F84130DBB201
:10479000012B14BF01230023DBB2002B01D0012326
:1047A0005EE03B68002B04D17B68022283F83E2048
:1047B00013E03B68042B04D17B68022283F83F207E
:1047C0000BE03B68082B04D17B68022283F8402071
:1047D00003E07B68022283F841207B681B6801228A
:1047E0003968184600F0E7FC7B681B681E4A934254
:1047F00007D17B681B685A6C7B681B6842F40042D7
:104800005A647B681B68184A93420ED07B681B6809
:10481000B3F1804F09D07B681B68144A934204D0DF
:104820007B681B68124A934211D17B681B689B68A6
:1048300003F00703FB60FB68062B10D07B681B6846
:104840001A687B681B6842F001021A6007E07B6807
:104850001B681A687B681B6842F001021A6000231B
:1048600018461037BD4680BD002C014000040040B2
:104870000008004080B582B000AF78607B68002BF4
:1048800001D1012341E07B6893F83D30DBB2002B7E
:1048900006D17B68002283F83C20786800F039F864
:1048A0007B68022283F83D207B681A687B680433AA
:1048B0001946104600F0DCF97B68012283F8462097
:1048C0007B68012283F83E207B68012283F83F2029
:1048D0007B68012283F840207B68012283F8412015
:1048E0007B68012283F842207B68012283F8432001
:1048F0007B68012283F844207B68012283F84520ED
:104900007B68012283F83D20002318460837BD4606
:1049100080BD80B483B000AF786000BF0C37BD4667
:1049200080BC704780B586B000AFF860B9607A602F
:104930000023FB75FB6893F83C30012B01D1022367
:1049400088E0FB68012283F83C207B68002B1BD1A8
:10495000FB681868BB681968BB685A68BB68DB6885
:1049600000F086FAFB681B689A69FB681B6822F0F6
:104970000C029A61FB681B689969BB689A68FB68BE
:104980001B680A439A6160E07B68042B1CD1FB68BA
:104990001868BB681968BB685A68BB68DB6800F0B8
:1049A000EFFAFB681B689A69FB681B6822F4406297
:1049B0009A61FB681B689969BB689B681A02FB686F
:1049C0001B680A439A6140E07B68082B1BD1FB6897
:1049D0001868BB681968BB685A68BB68DB6800F078
:1049E0003AFBFB681B68DA69FB681B6822F00C0263
:1049F000DA61FB681B68D969BB689A68FB681B6849
:104A00000A43DA6121E07B680C2B1CD1FB68186833
:104A1000BB681968BB685A68BB68DB6800F056FB66
:104A2000FB681B68DA69FB681B6822F44062DA6184
:104A3000FB681B68D969BB689B681A02FB681B6826
:104A40000A43DA6101E00123FB75FB68002283F869
:104A50003C20FB7D18461837BD4680BD80B584B02C
:104A600000AF786039600023FB737B6893F83C30BB
:104A7000012B01D10223B4E07B68012283F83C20A2
:104A80007B68022283F83D207B681B689B68BB60C3
:104A9000BB6823F07703BB60BB6823F47F43BB6034
:104AA0007B681B68BA689A603B681B68B3F5005F57
:104AB0003ED0B3F5005F00F28780B3F5805F00F071
:104AC0008680B3F5805F7FD8702B1AD0702B7BD88F
:104AD000602B50D0602B77D8502B3CD0502B73D804
:104AE000402B58D0402B6FD8302B64D0302B6BD854
:104AF000202B60D0202B67D8002B5CD0102B5AD0F5
:104B000062E07B6818683B6899683B685A683B6854
:104B1000DB6800F031FB7B681B689B68BB60BB688F
:104B200043F07703BB607B681B68BA689A604FE00C
:104B30007B6818683B6899683B685A683B68DB6823
:104B400000F01AFB7B681B689A687B681B6842F45C
:104B500080429A603CE07B6818683B6859683B6813
:104B6000DB681A4600F0DEF97B681B6850211846A6
:104B700000F0E8FA2CE07B6818683B6859683B68ED
:104B8000DB681A4600F038FA7B681B68602118461B
:104B900000F0D8FA1CE07B6818683B6859683B68ED
:104BA000DB681A4600F0BEF97B681B684021184696
:104BB00000F0C8FA0CE07B681A683B681B6819466D
:104BC000104600F0BFFA03E00123FB7300E000BFD2
:104BD0007B68012283F83D207B68002283F83C201B
:104BE000FB7B18461037BD4680BD80B582B000AF54
:104BF000786039607B6893F83C30012B01D1022347
:104C000031E07B68012283F83C207B68022283F834
:104C10003D203968786800F099F80346002B09D0E8
:104C20007B68012283F83D207B68002283F83C20CA
:104C3000012318E07B681B68DA687B681B6822F038
:104C40004002DA607B681B68DA687B681B6822F4C4
:104C50008042DA607B68012283F83D207B68002275
:104C600083F83C20002318460837BD4680BD00006D
:104C700080B485B000AF786039607B681B68FB60EA
:104C80007B682F4A93420BD07B68B3F1804F07D0EB
:104C90007B682C4A934203D07B682B4A934208D10D
:104CA000FB6823F07003FB603B685B68FA681343A2
:104CB000FB607B68224A93420BD07B68B3F1804F44
:104CC00007D07B681F4A934203D07B681E4A9342F9
:104CD00008D1FB6823F44073FB603B68DB68FA682B
:104CE0001343FB60FB6823F080023B685B6913435E
:104CF000FB607B68FA681A603B689A687B68DA62D6
:104D00003B681A687B689A627B680D4A934203D1BC
:104D10003B681A697B681A637B6801225A617B6869
:104D20001B6903F00103002B05D07B681B6923F08E
:104D300001027B681A6100BF1437BD4680BC704712
:104D4000002C0140000400400008004080B586B0FF
:104D500000AF786039600023FB757B681B689B6837
:104D60003B613B6923F070033B613B685B683A69D8
:104D700013433B613B6923F007033B613B681B68BE
:104D80003A6913433B617B681B683A699A603B68E8
:104D90005B68702B1AD0702B60D8602B54D0602BBE
:104DA0005CD8502B46D0502B58D8402B19D0402BD4
:104DB00054D8302B55D0302B50D8202B51D0202B0D
:104DC0004CD8002B4DD0102B4BD047E07B68186897
:104DD0003B68D9683B689A683B681B6900F0CCF96E
:104DE00040E03B681B68052B01D101233BE07B6859
:104DF0001B681B6AFB607B681B681A6A7B681B6800
:104E000022F001021A627B681B689B69BB60BB6869
:104E100023F0F003BB603B681B691B01BA681343B6
:104E2000BB607B681B68BA689A617B681B68FA681C
:104E30001A6217E07B6818683B6899683B681B69D1
:104E40001A4600F06FF80DE07B6818683B689968B7
:104E50003B681B691A4600F0CFF803E00123FB759D
:104E600000E000BFFB7D18461837BD4680BD00003E
:104E700080B487B000AFF860B9607A603B60FB68CF
:104E80001B6A3B61FB681B6A23F00102FB681A6224
:104E9000FB689B697B61FB681F4A93420BD0FB68F0
:104EA000B3F1804F07D0FB681C4A934203D0FB68E4
:104EB0001B4A934201D1012300E00023002B08D0BC
:104EC0007B6923F003037B617A697B6813437B6111
:104ED00003E07B6943F001037B617B6923F0F0030E
:104EE0007B613B681B01DBB27A6913437B613B69E1
:104EF00023F00A033B61BB6803F00A033A691343DA
:104F00003B61FB687A699A61FB683A691A6200BF83
:104F10001C37BD4680BC7047002C01400004004097
:104F20000008004080B487B000AFF860B9607A60D4
:104F3000FB681B6A7B61FB681B6A23F00102FB684C
:104F40001A62FB689B693B613B6923F0F0033B619C
:104F50007B681B013A6913433B617B6923F00A03B9
:104F60007B617A69BB6813437B61FB683A699A612C
:104F7000FB687A691A6200BF1C37BD4680BC704767
:104F800080B487B000AFF860B9607A603B60FB68BE
:104F90001B6A7B61FB681B6A23F01002FB681A62C4
:104FA000FB689B693B613B6923F440733B617B6811
:104FB0001B023A6913433B613B6923F470433B6135
:104FC0003B681B039BB23A6913433B617B6923F047
:104FD000A0037B61BB681B0103F0A0037A69134344
:104FE0007B61FB683A699A61FB687A691A6200BF63
:104FF0001C37BD4680BC704780B487B000AFF860F6
:10500000B9607A60FB681B6A7B61FB681B6A23F0EE
:105010001002FB681A62FB689B693B613B6923F4E1
:1050200070433B617B681B033A6913433B617B69B7
:1050300023F0A0037B61BB681B017A6913437B618A
:10504000FB683A699A61FB687A691A6200BF1C378B
:10505000BD4680BC704780B487B000AFF860B960CF
:105060007A603B60FB681B6A7B61FB681B6A23F408
:105070008072FB681A62FB68DB693B613B6923F065
:1050800003033B613A697B6813433B613B6923F04F
:10509000F0033B613B681B01DBB23A6913433B61A0
:1050A0007B6923F400737B61BB681B0203F400730C
:1050B0007A6913437B61FB683A69DA61FB687A6954
:1050C0001A6200BF1C37BD4680BC704780B487B0F1
:1050D00000AFF860B9607A603B60FB681B6A7B6177
:1050E000FB681B6A23F48052FB681A62FB68DB6969
:1050F0003B613B6923F440733B617B681B023A6967
:1051000013433B613B6923F470433B613B681B03E2
:105110009BB23A6913433B617B6923F400537B6183
:10512000BB681B0303F400537A6913437B61FB687C
:105130003A69DA61FB687A691A6200BF1C37BD46BA
:1051400080BC704780B485B000AF786039607B6800
:105150009B68FB60FB6823F07003FB603A68FB68A8
:10516000134343F00703FB607B68FA689A6000BF53
:105170001437BD4680BC704780B487B000AFF8607C
:10518000B9607A603B60FB689B687B617B6923F454
:105190007F437B613B681A027B681A43BB681343F9
:1051A0007A6913437B61FB687A699A6000BF1C3798
:1051B000BD4680BC704780B487B000AFF860B9606E
:1051C0007A60BB6803F01F03012202FA03F37B61DC
:1051D000FB681A6A7B69DB431A40FB681A62FB684A
:1051E0001A6ABB6803F01F03796801FA03F31A43D4
:1051F000FB681A6200BF1C37BD4680BC70470000C8
:1052000080B485B000AF786039607B6893F83C303B
:10521000012B01D1022346E07B68012283F83C2068
:105220007B68022283F83D207B681B685B68FB601B
:105230007B681B689B68BB60FB6823F07003FB60A6
:105240003B681B68FA681343FB607B681B68FA685D
:105250005A607B681B68164A93420ED07B681B68B5
:10526000B3F1804F09D07B681B68124A934204D087
:105270007B681B68104A93420CD1BB6823F0800303
:10528000BB603B685B68BA681343BB607B681B68A4
:10529000BA689A607B68012283F83D207B6800220F
:1052A00083F83C20002318461437BD4680BC704765
:1052B000002C014000040040000800400346024466
:1052C000934200D1704703F8011BF9E7014B1868BE
:1052D000704700BF0C00002070B500260C4D0D4C2F
:1052E000641BA410A64209D100F0F4F900260A4D6F
:1052F0000A4C641BA410A64205D170BD55F8043BAE
:1053000098470136EEE755F8043B98470136F2E737
:10531000605700086057000860570008645700088D
:10532000F8B506460F4600F03BF804460D463046F9
:10533000394600F02FF868B111A3D3E900233046B5
:105340003946FBF705FC40B1FFF7C0FF22230024DC
:105350000F4D036020462946F8BD30460AA3D3E925
:1053600000233946FBF7D6FB0028F3D0FFF7AEFF4A
:105370002223002400250360ECE700BFAFF3008088
:10538000EF39FAFE422E864051302DD5104987C0A4
:105390000000F07F41F0004000F58010C00F704722
:1053A0002DE9FF47AE4F21F00042BA4204460D46B8
:1053B0004FEAD17632D9AB4FBA4212D9C1F31303B7
:1053C0000343024605D00B46FAF77CFF04460D4620
:1053D00002E0002E40F012812046294604B0BDE8CC
:1053E000F08789A3D3E90023FBF7B2FB074628B176
:1053F000002004B0BDE8F04700F066B9204684A361
:10540000D3E900232946FBF785FB002800F08580BF
:10541000384604B0BDE8F04700F051B9924B9A42CB
:1054200040F2A780914B9A4277D8914BF40003EB5E
:10543000C603D3E90023FAF743FF804689468D4B24
:1054400086F0010A2344D3E90034CDE90034AAEB05
:10545000060A4046DDE900234946FAF731FF0446D3
:105460000D4622462B4620462946FBF7E1F86AA363
:10547000D3E9002306460F46FBF7DAF868A3D3E921
:105480000023FAF71DFF32463B46FBF7D1F866A32F
:10549000D3E90023FAF716FF32463B46FBF7C8F87C
:1054A00063A3D3E90023FAF70BFF32463B46FBF731
:1054B000BFF861A3D3E90023FAF704FF32463B4665
:1054C000FBF7B6F802460B4620462946FAF7F8FEE7
:1054D00002460B4606460F4620462946FBF7A8F82B
:1054E000CDE90201BAF1000F5AD100224FF08043FA
:1054F00030463946FAF7E4FE02460B46DDE9020182
:10550000FBF7C0F922462B46FAF7DAFE02460B46B5
:1055100000205949FAF7D4FE58E7584B204603EBD0
:10552000C606294646A3D3E90023FBF781F8D6E94E
:105530000023FAF7C7FEFBF715FB8246FBF70EF8D0
:1055400041A3D3E9002306460F46FBF771F8024654
:105550000B4620462946FAF7B3FE3DA3D3E90023C4
:105560008046894630463946FBF762F8CDE90001AE
:105570006FE7434B9A420ED837A3D3E90023FAF7DB
:10558000A1FE00223C4BFBF7E3FA38B10022204693
:105590002946394B18E74FF0000A62E7824660E778
:1055A00032463B4600204FF08041FAF789FE024622
:1055B0000B46DDE90201FBF765F902460B46DDE922
:1055C0000001FAF77DFE42464B46FAF779FE0246A5
:1055D0000B4600202849FAF773FE6FF47F7292455C
:1055E00002DB01EB0A51F1E60AF57A7A00224FF06C
:1055F000B87301EB0A51FBF71BF8E7E6002400251E
:10560000EAE600BFAFF30080EF39FAFE422E864093
:1056100051302DD5104987C0D0A4BE726937663E7F
:10562000F16BD2C541BDBB3E2CDE25AF6A56113FA2
:1056300093BDBE166CC1663F3E5555555555C53F89
:10564000FE822B654715F73F0000E0FE422EE63F45
:10565000763C7935EF39EA3D9C7500883CE4377E2D
:10566000412E8640FFFFEF7F422ED63FB1A2F03F92
:1056700040570008305700080000F03F505700081E
:10568000FFFFEF3D70B504460D461646FFF71EFEC0
:1056900029460660204670BD13B5044619461046DB
:1056A0000CB103F10043CDE90023DDE90023FAF753
:1056B000BFFF222202B0BDE81040FFF7E3BF002287
:1056C0004FF08053FFF7E8BF00224FF0E043FFF7B1
:1056D000E3BF0000F8B500BFF8BC08BC9E467047A9
:0C56E000F8B500BFF8BC08BC9E4670473F
:1056F0000000000000000000010203040607080982
:105700000000000001020304020304050607080963
:105710000A0B0C0D0E0F101001020000020304050D
:10572000060708090A0B0C0D0E0F101001020000ED
:10573000763C7935EF39EA3D763C7935EF39EABD8B
:105740000000E0FE422EE63F0000E0FE422EE6BFF3
:10575000000000000000E03F000000000000E0BF8B
:045760003501000807
:045764001101000827
:105768000024F400100000000100000010000020D8
:105778000000000044020020AC02002014030020B6
:105788000000000000000000000000000000000011
:105798000000000000000000000000000000000001
:1057A80000000000000000000000000000000000F1
:0C57B800000000000000000000000000E5
:0400000508001FE9E7
:00000001FF
