:020000040800F2
:100000000050002021280008D51D0008DD1D000833
:10001000E51D0008ED1D0008F51D000800000000AA
:10002000000000000000000000000000FD1D0008AE
:10003000091E000800000000151E0008211E00080F
:10004000692800086928000869280008692800084C
:10005000692800086928000869280008692800083C
:100060006928000869280008692800082D1E000872
:10007000692800086928000869280008692800081C
:100080006928000869280008411E0008692800083E
:10009000551E00086928000869280008691E000824
:1000A00069280008692800086928000869280008EC
:1000B00069280008692800086928000869280008DC
:1000C00069280008692800086928000869280008CC
:1000D00069280008692800086928000869280008BC
:1000E0006928000869280008692800080000000045
:1000F0000000000000000000000000000000000000
:0C01000000000000000000005FF808F1A3
:1001100010B5054C237833B9044B13B10448AFF341
:1001200000800123237010BD60000020000000004B
:100130003467000808B5034B1BB103490348AFF30C
:10014000008008BD00000000640000203467000843
:100150004FF0FF0C1CEAD0521EBF1CEAD15392EAAA
:100160000C0F93EA0C0F6FD01A4480EA010C400286
:1001700018BF5FEA41211ED04FF0006343EA5010E0
:1001800043EA5111A0FB01310CF00040B1F5000F22
:100190003EBF490041EAD3715B0040EA010062F1D1
:1001A0007F02FD2A1DD8B3F1004F40EBC25008BFBB
:1001B00020F00100704790F0000F0CF0004C08BFD9
:1001C00049024CEA502040EA51207F3AC2BFD2F1A6
:1001D000FF0340EAC250704740F400004FF00003B4
:1001E000013A5DDC12F1190FDCBF00F000407047EE
:1001F000C2F10002410021FA02F1C2F1200200FA2C
:1002000002FC5FEA310040F1000053EA4C0308BFF2
:1002100020EADC70704792F0000F00F0004C02BF43
:10022000400010F4000F013AF9D040EA0C0093F0BE
:10023000000F01F0004C02BF490011F4000F013B18
:10024000F9D041EA0C018FE70CEAD15392EA0C0F86
:1002500018BF93EA0C0F0AD030F0004C18BF31F0F1
:10026000004CD8D180EA010000F00040704790F0C7
:10027000000F17BF90F0004F084691F0000F91F06B
:10028000004F14D092EA0C0F01D142020FD193EA31
:100290000C0F03D14B0218BF084608D180EA0100B9
:1002A00000F0004040F0FE4040F40000704740F095
:1002B000FE4040F44000704781F0004102E000BF82
:1002C00083F0004330B54FEA41044FEA430594EA16
:1002D000050F08BF90EA020F1FBF54EA000C55EA51
:1002E000020C7FEA645C7FEA655C00F0E2804FEA22
:1002F0005454D4EB5555B8BF6D420CDD2C4480EA04
:10030000020281EA030382EA000083EA010180EA33
:10031000020281EA0303362D88BF30BD11F0004F81
:100320004FEA01314FF4801C4CEA113102D04042B7
:1003300061EB410113F0004F4FEA03334CEA1333F2
:1003400002D0524263EB430394EA050F00F0A7800A
:10035000A4F10104D5F1200E0DDB02FA0EFC22FA05
:1003600005F2801841F1000103FA0EF2801843FAF9
:1003700005F359410EE0A5F120050EF1200E012AEA
:1003800003FA0EFC28BF4CF0020C43FA05F3C01828
:1003900051EBE37101F0004507D54FF0000EDCF1A1
:1003A000000C7EEB00006EEB0101B1F5801F1BD34A
:1003B000B1F5001F0CD349085FEA30004FEA3C0C4E
:1003C00004F101044FEA445212F5800F80F09A8044
:1003D000BCF1004F08BF5FEA500C50F1000041EB48
:1003E000045141EA050130BD5FEA4C0C404141EB4C
:1003F0000101013C28BFB1F5801FE9D291F0000F47
:1004000004BF01460020B1FA81F308BF2033A3F1F5
:100410000B03B3F120020CDA0C3208DD02F1140CEC
:10042000C2F10C0201FA0CF021FA02F10CE002F127
:100430001402D8BFC2F1200C01FA02F120FA0CFC20
:10044000DCBF41EA0C019040E41AA2BF01EB045169
:10045000294330BD6FEA04041F3C1CDA0C340EDC67
:1004600004F11404C4F1200220FA04F001FA02F3AA
:1004700040EA030021FA04F345EA030130BDC4F168
:100480000C04C4F1200220FA02F001FA04F340EA5D
:100490000300294630BD21FA04F0294630BD94F00E
:1004A000000F83F4801306BF81F480110134013DF5
:1004B0004EE77FEA645C18BF7FEA655C29D094EA66
:1004C000050F08BF90EA020F05D054EA000C04BFE4
:1004D0001946104630BD91EA030F1EBF00210020CF
:1004E00030BD5FEA545C05D14000494128BF41F06E
:1004F000004130BD14F580043CBF01F5801130BDD2
:1005000001F0004545F0FE4141F470014FF000005C
:1005100030BD7FEA645C1ABF194610467FEA655C0D
:100520001CBF0B46024650EA013406BF52EA0335AF
:1005300091EA030F41F4002130BD00BF90F0000F9D
:1005400004BF0021704730B54FF4806404F13204D9
:100550004FF000054FF0000150E700BF90F0000F92
:1005600004BF0021704730B54FF4806404F13204B9
:1005700010F0004548BF40424FF000013EE700BF89
:1005800042004FEAE2014FEA31014FEA02701FBF19
:1005900012F07F4393F07F4F81F06051704732F04B
:1005A0007F4208BF704793F07F4F04BF41F40021A2
:1005B000704730B54FF4607401F0004521F0004100
:1005C0001CE700BF50EA010208BF704730B54FF08A
:1005D00000050AE050EA010208BF704730B511F08B
:1005E000004502D5404261EB41014FF4806404F1C3
:1005F00032045FEA915C3FF4D8AE4FF003025FEA49
:10060000DC0C18BF03325FEADC0C18BF033202EBCC
:10061000DC02C2F1200300FA03FC20FA02F001FA26
:1006200003FE40EA0E0021FA02F11444BDE600BFC9
:1006300070B54FF0FF0C4CF4E06C1CEA11541DBF78
:100640001CEA135594EA0C0F95EA0C0F00F0DEF843
:100650002C4481EA030621EA4C5123EA4C5350EA28
:10066000013518BF52EA033541F4801143F4801379
:1006700038D0A0FB02CE4FF00005E1FB02E506F00A
:100680000042E0FB03E54FF00006E1FB03569CF05F
:10069000000F18BF4EF0010EA4F1FF04B6F5007F65
:1006A00064F5407404D25FEA4E0E6D4146EB0606D7
:1006B00042EAC62141EA55514FEAC52040EA5E5060
:1006C0004FEACE2EB4F1FD0C88BFBCF5E06F1ED80A
:1006D000BEF1004F08BF5FEA500E50F1000041EB41
:1006E000045170BD06F0004646EA010140EA0200EE
:1006F00081EA0301B4EB5C04C2BFD4EB0C0541EA10
:10070000045170BD41F480114FF0000E013C00F324
:10071000AB8014F1360FDEBF002001F0004170BD48
:10072000C4F10004203C35DA0C341BDC04F1140461
:10073000C4F1200500FA05F320FA04F001FA05F2ED
:1007400040EA020001F0004221F0004110EBD370BA
:1007500021FA04F642EB06015EEA430E08BF20EAE6
:10076000D37070BDC4F10C04C4F1200500FA04F389
:1007700020FA05F001FA04F240EA020001F000411B
:1007800010EBD37041F100015EEA430E08BF20EA8E
:10079000D37070BDC4F1200500FA05F24EEA020ED6
:1007A00020FA04F301FA05F243EA020321FA04F005
:1007B00001F0004121FA04F220EA020000EBD370BC
:1007C0005EEA430E08BF20EAD37070BD94F0000FBC
:1007D0000FD101F00046400041EB010111F4801FF0
:1007E00008BF013CF7D041EA060195F0000F18BFA1
:1007F000704703F00046520043EB030313F4801FDD
:1008000008BF013DF7D043EA0603704794EA0C0F96
:100810000CEA135518BF95EA0C0F0CD050EA4106AC
:1008200018BF52EA4306D1D181EA030101F0004129
:100830004FF0000070BD50EA410606BF1046194651
:1008400052EA430619D094EA0C0F02D150EA01365D
:1008500013D195EA0C0F05D152EA03361CBF10469E
:1008600019460AD181EA030101F0004141F0FE413D
:1008700041F470014FF0000070BD41F0FE4141F4C1
:10088000780170BD70B54FF0FF0C4CF4E06C1CEAC1
:1008900011541DBF1CEA135594EA0C0F95EA0C0F76
:1008A00000F0A7F8A4EB050481EA030E52EA033531
:1008B0004FEA013100F088804FEA03334FF0805552
:1008C00045EA131343EA12634FEA022245EA11157F
:1008D00045EA10654FEA00260EF000419D4208BF30
:1008E000964244F1FD0404F5407402D25B084FEADD
:1008F0003202B61A65EB03055B084FEA32024FF489
:1009000080104FF4002CB6EB020E75EB030E22BFE5
:10091000B61A754640EA0C005B084FEA3202B6EBA5
:10092000020E75EB030E22BFB61A754640EA5C0054
:100930005B084FEA3202B6EB020E75EB030E22BFE4
:10094000B61A754640EA9C005B084FEA3202B6EBE5
:10095000020E75EB030E22BFB61A754640EADC00A4
:1009600055EA060E18D04FEA051545EA16754FEA06
:1009700006164FEAC30343EA52734FEAC2025FEA24
:100980001C1CC0D111F4801F0BD141EA00014FF0B3
:1009900000004FF0004CB6E711F4801F04BF014384
:1009A0000020B4F1FD0C88BFBCF5E06F3FF6AFAEA0
:1009B000B5EB030C04BFB6EB020C5FEA500C50F130
:1009C000000041EB045170BD0EF0004E4EEA1131B3
:1009D00014EB5C04C2BFD4EB0C0541EA045170BDBA
:1009E00041F480114FF0000E013C90E645EA060EFE
:1009F0008DE60CEA135594EA0C0F08BF95EA0C0F2C
:100A00003FF43BAF94EA0C0F0AD150EA01347FF473
:100A100034AF95EA0C0F7FF425AF104619462CE74A
:100A200095EA0C0F06D152EA03353FF4FDAE1046AD
:100A3000194622E750EA410618BF52EA43067FF4FE
:100A4000C5AE50EA41047FF40DAF52EA43057FF48E
:100A5000EBAE12E74FF0FF3C06E000BF4FF0010C99
:100A600002E000BF4FF0010C4DF804CD4FEA410CFD
:100A70007FEA6C5C4FEA430C18BF7FEA6C5C1BD0CA
:100A800001B050EA410C0CBF52EA430C91EA030F4B
:100A900002BF90EA020F0020704710F1000F91EAA8
:100AA000030F58BF994208BF90422CBFD8176FEA76
:100AB000E37040F0010070474FEA410C7FEA6C5C44
:100AC00002D150EA013C07D14FEA430C7FEA6C5C4B
:100AD000D6D152EA033CD3D05DF8040B704700BF77
:100AE0008446104662468C461946634600E000BFC5
:100AF00001B5FFF7B7FF002848BF10F1000F01BD97
:100B00004DF808EDFFF7F4FF0CBF012000205DF861
:100B100008FB00BF4DF808EDFFF7EAFF34BF0120E6
:100B200000205DF808FB00BF4DF808EDFFF7E0FF7F
:100B300094BF012000205DF808FB00BF4DF808EDD0
:100B4000FFF7CEFF94BF012000205DF808FB00BF37
:100B50004DF808EDFFF7C4FF34BF012000205DF819
:100B600008FB00BF4FEA410212F5001215D211D561
:100B70006FF47873B3EB625212D94FEAC12343F09A
:100B8000004343EA505311F0004F23FA02F018BF1C
:100B9000404270474FF00000704750EA013005D1E5
:100BA00011F0004008BF6FF0004070474FF00000A8
:100BB000704700BF4FEA4102B2F1E04324BFB3F5F2
:100BC000001CDCF1FE5C0DD901F0004C4FEAC002C4
:100BD0004CEA5070B2F1004F40EB830008BF20F0A8
:100BE0000100704711F0804F21D113F13872BCBF62
:100BF00001F00040704741F480114FEA5252C2F1B7
:100C00001802C2F1200C10FA0CF320FA02F018BFFF
:100C100040F001004FEAC1234FEAD32303FA0CFC52
:100C200040EA0C0023FA02F34FEA4303CCE77FEAE1
:100C3000625307D150EA01331EBF4FF0FE4040F42B
:100C40004000704701F0004040F0FE4040F40000DA
:100C5000704700BF80F0004002E000BF81F000411B
:100C600042001FBF5FEA410392EA030F7FEA226C52
:100C70007FEA236C6AD04FEA1262D2EB1363C1BFE2
:100C8000D218414048404140B8BF5B42192B88BF51
:100C9000704710F0004F40F4000020F07F4018BF74
:100CA000404211F0004F41F4000121F07F4118BF94
:100CB000494292EA030F3FD0A2F1010241FA03FC3C
:100CC00010EB0C00C3F1200301FA03F100F0004324
:100CD00002D5494260EB4000B0F5000F13D3B0F1EC
:100CE000807F06D340084FEA310102F10102FE2A5B
:100CF00051D2B1F1004F40EBC25008BF20F00100CB
:100D000040EA03007047490040EB0000013A28BF69
:100D1000B0F5000FEDD2B0FA80FCACF1080CB2EBEC
:100D20000C0200FA0CF0AABF00EBC250524218436A
:100D3000BCBFD0401843704792F0000F81F400010F
:100D400006BF80F400000132013BB5E74FEA4103E2
:100D50007FEA226C18BF7FEA236C21D092EA030F4E
:100D600004D092F0000F08BF0846704790EA010FC8
:100D70001CBF0020704712F07F4F04D1400028BFF5
:100D800040F00040704712F100723CBF00F50000D7
:100D9000704700F0004343F0FE4040F4000070470D
:100DA0007FEA226216BF08467FEA236301464202B9
:100DB00006BF5FEA412390EA010F40F480007047CC
:100DC0004FF0000304E000BF10F0004348BF404272
:100DD0005FEA000C08BF704743F0964301464FF0AE
:100DE00000001CE050EA010208BF70474FF000030A
:100DF0000AE000BF50EA010208BF704711F000434B
:100E000002D5404261EB41015FEA010C02BF84461A
:100E10000146002043F0B64308BFA3F18053A3F579
:100E20000003BCFA8CF2083AA3EBC25310DB01FAC0
:100E300002FC634400FA02FCC2F12002BCF1004F44
:100E400020FA02F243EB020008BF20F001007047D5
:100E500002F1200201FA02FCC2F1200250EA4C0029
:100E600021FA02F243EB020008BF20EADC7070476F
:100E70004FEA4002B2F1FE4F0FD34FF09E03B3EBA7
:100E800012620DD94FEA002343F0004310F0004FE7
:100E900023FA02F018BF404270474FF0000070473D
:100EA00012F1610F01D1420205D110F0004008BFDC
:100EB0006FF0004070474FF00000704742000ED2C4
:100EC000B2F1FE4F0BD34FF09E03B3EB126209D485
:100ED0004FEA002343F0004323FA02F070474FF03B
:100EE0000000704712F1610F01D1420202D14FF0B0
:100EF000FF3070474FF00000704700BF53B94AB948
:100F0000002908BF00281CBF4FF0FF314FF0FF3011
:100F100000F08CB9ADF1080C6DE904CE00F006F8D4
:100F2000DDF804E0DDE9022304B070472DE9F04765
:100F3000089D8E4604468846002B4AD18A421746B1
:100F400062D9B2FA82F64EB1C6F1200301FA06F870
:100F500020FA03F3B74043EA0808B4404FEA174EBB
:100F6000B8FBFEF11FFA87FC0EFB118801FB0CF2A7
:100F7000230C43EA08439A4209D9FB1801F1FF30D8
:100F800080F0EB809A4240F2E88002393B449A1AA2
:100F9000B2FBFEF00EFB102200FB0CFCA3B243EAF6
:100FA00002439C4509D9FB1800F1FF3280F0D7803D
:100FB0009C4540F2D4803B44023840EA0140002185
:100FC000A3EB0C031DB10022F340C5E90032BDE8DC
:100FD000F0878B4205D90DB1C5E900010021084613
:100FE000F5E7B3FA83F1002946D1734502D3824273
:100FF00000F20881841A6EEB030201209046002D56
:10100000E5D0C5E90048E2E7002A00F09180B2FA95
:1010100082F6002E40F0A5808A1A0121030C4FEAC7
:10102000174E80B2BCB2B2FBFEFC0EFB1C2243EAA0
:10103000024304FB0CF29A4207D9FB180CF1FF386B
:1010400002D29A4200F2E380C4469B1AB3FBFEF23E
:101050000EFB123302FB04F440EA03439C4207D91F
:10106000FB1802F1FF3002D29C4200F2CD80024612
:101070001B1B42EA0C40A5E7C1F120068B4022FA77
:1010800006F71F432EFA06FA4FEA1749BAFBF9F89A
:101090000EFA01FE20FA06F309FB18AA1FFA87FCD4
:1010A00043EA0E0300FA01FE08FB0CF01C0C44EAB4
:1010B0000A44A04202FA01F20AD93C1908F1FF3AA7
:1010C00080F09E80A04240F29B80A8F102083C4440
:1010D000241A98B2B4FBF9F309FB134403FB0CFC8C
:1010E00040EA0444A44509D93C1903F1FF3080F0DB
:1010F0008580A44540F28280023B3C4443EA08409C
:10110000A4EB0C04A0FB028C64454346E14664D387
:1011100061D05DB1BEEB030264EB090404FA06F68C
:1011200022FA01F31E43CC40C5E9006400214EE7DA
:10113000B1FBF2FC010C41EA0E4180B240EA0142EF
:101140003B46B1FBF7F138463C46B846BE46202642
:10115000A2EB080241EA0C4165E7014617E7104699
:101160002BE7C6F120012EFA01FCB7400EFA06FE6D
:1011700020FA01F141EA0E014FEA174EBCFBFEF8DE
:10118000BCB20EFB18CC08FB04F90A0C42EA0C4274
:10119000B04091454FEA104380B23ED9BA1808F1E9
:1011A000FF3C01D291451FD8A2EB0902B2FBFEF928
:1011B00009FB04F80EFB192A8AB242EA0A424245A8
:1011C00029D2BA1809F1FF31C2D24245C0D2A9F1E1
:1011D00002013A44BCE7C6459BD2B8EB02036CEB74
:1011E000070C0138E14694E7A7EB09094A44B2FB32
:1011F000FEF9A8F1020C09FB04F8DBE703467DE7E2
:10120000D04665E70846FAE63B44023A30E7ACF1DF
:10121000020C3B4419E749469AE7A2EB0902B2FBEC
:10122000FEF9C44609FB04F8C4E700BF704700BFDD
:1012300080B485B000AFF860B9607A603B60FB684D
:10124000BA681A60FB687A685A60FB683A689A6004
:10125000FB68BA69DA60FB6800221A8200BF1437A3
:10126000BD4680BC704780B584B000AF78603960FF
:101270000023FB737B681A687B68043319461046A9
:1012800001F0A6FF0346FB73FB7B002B01D0FB7B29
:1012900022E07B681B68184601F022FC0346FB73C2
:1012A000FB7B002B01D0FB7B16E07B681B68396859
:1012B000184601F0C3FC0346FB73FB7B002B01D0F7
:1012C000FB7B09E07B681B68184601F09BFE034628
:1012D0009AB27B681A82002318461037BD4680BD3B
:1012E00080B58AB000AF01233B621C237B620023E0
:1012F0007B6100233B610023BB610123FB61002371
:101300003B6000237B600023BB600023FB603B4607
:1013100019460E4802F059FA0346002B01D000F09E
:1013200085FB0221094802F081FD0346002B01D014
:1013300000F07CFB054802F011FB0346002B01D0B6
:1013400000F074FB00BF2837BD4680BD1C010020A3
:1013500080B584B000AFF860B9601346FB710F4BE5
:1013600000229A600D4AFB6813600C4B0022DA6081
:10137000FB790A4A13610A4802F003FC0346002B7A
:1013800001D1002306E0074BBA680449044802F083
:1013900029FB034618461037BD4680BD8C0000204F
:1013A0001C010020A400002080B58CB000AF786044
:1013B00007F10C0307F114020021786802F015FC14
:1013C0000346002B01D000F031FB7B6940F26672CE
:1013D00093421ED040F26672934200F2928040F235
:1013E0000552934200F0818040F20552934200F290
:1013F0008880B3F5607F10D0B3F5607F00F2818004
:10140000C02B6BD0C02B7CD8A02B0AD0A22B55D0E0
:1014100077E03A7C3D4B1A7073E03A7B3B4B5A7055
:101420006FE07B7B1BB21B021AB2384B5A80374BE2
:10143000B3F902203B7B1BB213431AB2334B5A80E1
:10144000FB7B1BB21B021AB2304BDA802F4BB3F975
:101450000620BB7B1BB213431AB22C4BDA807B7C79
:101460001BB21B021AB2294BDA80284BB3F90620B3
:101470003B7C1BB213431AB2244BDA80234BB3F9E3
:101480000220224B1A81214BB3F904201F4BB3F9E0
:1014900008309A4204DD1D4BB3F904201B4B1A811E
:1014A0001A4BB3F90620194BB3F908309A4227DDDD
:1014B000164BB3F90620154B1A8121E07B7C1BB239
:1014C0001B021AB2114B5A81104BB3F90A203B7C14
:1014D0001BB213431AB20D4B5A8112E07B7C03F00E
:1014E0000103DAB2094B1A730BE03B7B012B03D1EA
:1014F000064B01225A7304E0044B00225A7300E0A9
:1015000000BF00BF3037BD4680BD00BF7C0000205B
:1015100080B500AF01F0AAF900F018F800F016FA53
:1015200000F0F6F900F01EF900F052F900F06AF848
:1015300009220449044801F087FC00F0A3FC00F0F4
:10154000D1FEFCE78C010020A800002080B594B0FB
:1015500000AF07F1280328220021184604F0DEFE20
:1015600007F1140300221A605A609A60DA601A6167
:101570003B1D00221A605A609A60DA600123BB6248
:101580004FF48033FB624FF400333B630123BB63B2
:1015900002237B644FF48033BB644FF4E013FB649D
:1015A00007F12803184603F039FB0346002B01D04E
:1015B00000F03CFA0F237B610223BB610023FB6137
:1015C0004FF480633B6200237B6207F11403022126
:1015D000184603F0A5FD0346002B01D000F026FAC3
:1015E00002237B604FF44043FB603B1D184603F031
:1015F00013FF0346002B01D000F018FA00BF50374C
:10160000BD4680BD80B584B000AF3B1D00221A608E
:101610005A609A60514B524A1A60504B4FF4807294
:101620009A604E4B01221A734C4B00221A754B4B99
:101630004FF46022DA61494B00225A60474B09227D
:101640001A61464801F074F90346002B01D000F0FE
:10165000EDF901237B600123BB600023FB603B1D90
:1016600019463E4801F0B4FD0346002B01D000F0BE
:10167000DDF902237B600223BB603B1D194637481E
:1016800001F0A6FD0346002B01D000F0CFF90323A3
:101690007B600323BB603B1D1946304801F098FD79
:1016A0000346002B01D000F0C1F904237B60042322
:1016B000BB603B1D1946294801F08AFD0346002BFB
:1016C00001D000F0B3F905237B600523BB603B1D0F
:1016D0001946224801F07CFD0346002B01D000F0A2
:1016E000A5F906237B600623BB603B1D19461B48FA
:1016F00001F06EFD0346002B01D000F097F907239F
:101700007B600723BB603B1D1946144801F060FD58
:101710000346002B01D000F089F908237B600823E1
:10172000BB603B1D19460D4801F052FD0346002BDE
:1017300001D000F07BF909237B600923BB603B1DCE
:101740001946064801F044FD0346002B01D000F085
:101750006DF900BF1037BD4680BD00BFA800002056
:101760000024014080B500AF174B184A1A60164B91
:1017700012225A60144B00229A60134B0022DA6046
:10178000114B4FF480321A610F4B00225A610E4BFD
:1017900000221A760C4B00225A760B4B00229A76C6
:1017A000094B0122DA76084B00221A77064B0022F9
:1017B0005A77054801F00EFF0346002B01D000F0D8
:1017C00035F900BF80BD00BF1C010020006400404F
:1017D00080B590B000AF07F1300300221A605A6064
:1017E0009A60DA6007F11C0300221A605A609A605E
:1017F000DA601A6107F10C0300221A605A609A60DD
:10180000DA603B1D00221A605A603F4B3F4A1A6063
:101810003D4B00225A603C4B00229A603A4B47F203
:101820003052DA60384B00221A61374B00225A617D
:10183000354B00229A61344803F05AFF0346002BCF
:1018400001D000F0F3F84FF480533B6307F130030D
:1018500019462D4804F032F90346002B01D000F060
:10186000E5F8294804F036F80346002B01D000F0D3
:10187000DDF80423FB6150233B6200237B620023DD
:10188000BB620023FB6207F11C0319461E4804F0EB
:10189000DCF90346002B01D000F0C8F80023FB6000
:1018A00001233B6100237B610023BB6107F10C0333
:1018B00000221946144804F065F80346002B01D0B5
:1018C00000F0B4F80223FB6002233B6107F10C0334
:1018D000042219460C4804F055F80346002B01D0A9
:1018E00000F0A4F800237B600023BB603B1D194679
:1018F000054804F0B5FC0346002B01D000F096F833
:1019000000BF4037BD4680BD44010020002C01408F
:1019100080B582B000AF0C4B5B690B4A43F001030A
:101920005361094B5B6903F001037B607B68002214
:1019300000210B2002F099FD0B2002F0B2FD00BF48
:101940000837BD4680BD00BF0010024080B588B09A
:1019500000AF07F1100300221A605A609A60DA6043
:101960002E4B9B692D4A43F0200393612B4B9B69BF
:1019700003F02003FB60FB68284B9B69274A43F078
:1019800004039361254B9B6903F00403BB60BB68B0
:10199000224B9B69214A43F0080393611F4B9B69CB
:1019A00003F008037B607B6800224FF480511C48E1
:1019B00003F004F901233B6100237B610023BB6139
:1019C00007F110031946174802F074FF4FF48053D3
:1019D0003B6101237B610023BB610223FB6107F1B3
:1019E000100319460E4802F065FF50233B610E4B71
:1019F0007B610023BB6107F110031946084802F020
:101A000059FF00220021172002F02FFD172002F0BD
:101A100048FD00BF2037BD4680BD00BF001002401A
:101A2000000C0140000801400000111080B400AF1C
:101A300072B600BF00BFFDE780B584B000AFF860AC
:101A4000B9607A60FB68BA681A60FB687A685A60A5
:101A50007968B86803F09CFE034618461037BD4607
:101A600080BD000080B485B000AF78600B46FB708D
:101A70007B681B681B68DB6AFA78C2F1FF0202FB15
:101A800003F3224AA2FB0323DB09FB607B685B684C
:101A90000C2B35D801A252F823F000BFD11A000850
:101AA000011B0008011B0008011B0008DD1A0008CB
:101AB000011B0008011B0008011B0008E91A0008AF
:101AC000011B0008011B0008011B0008F51A000893
:101AD0007B681B681B68FA685A6311E07B681B68A7
:101AE0001B68FA689A630BE07B681B681B68FA68DE
:101AF000DA6305E07B681B681B68FA681A6400BF3C
:101B000000BF1437BD4680BC704700BF8180808015
:101B100080B485B000AF154B9B69144A43F00103B4
:101B20009361124B9B6903F00103BB60BB680F4BD1
:101B3000DB690E4A43F08053D3610C4BDB6903F041
:101B400080537B607B680A4B5B68FB60FB6823F01B
:101B5000E063FB60FB6843F00073FB60044AFB68D2
:101B6000536000BF1437BD4680BC70470010024070
:101B70000000014080B58AB000AF786007F118031B
:101B800000221A605A609A60DA607B681B68374AE4
:101B9000934267D1364B9B69354A43F40073936196
:101BA000334B9B6903F400737B617B69304B9B690A
:101BB0002F4A43F0040393612D4B9B6903F0040308
:101BC0003B613B692A4B9B69294A43F008039361B7
:101BD000274B9B6903F00803FB60FB68FE23BB6196
:101BE0000323FB6107F118031946224802F062FE45
:101BF0000323BB610323FB6107F1180319461E4849
:101C000002F058FE1D4B1E4A1A601C4B00225A60FF
:101C10001A4B00229A60194B8022DA60174B4FF45E
:101C200000721A61154B4FF400625A61134B202267
:101C30009A61124B0022DA61104802F04DFC034613
:101C4000002B01D0FFF7F2FE7B680C4A1A620B4AA8
:101C50007B68536200220021122002F006FC122051
:101C600002F01FFC00BF2837BD4680BD00240140A4
:101C70000010024000080140000C0140D800002084
:101C80000800024080B58AB000AF786007F1140305
:101C900000221A605A609A60DA607B681B68294AE1
:101CA00093424BD1284BDB69274A43F00073D36141
:101CB000254BDB6903F000733B613B69224B9B6959
:101CC000214A43F0080393611F4B9B6903F008030B
:101CD000FB60FB684FF480737B610023BB610123D1
:101CE000FB6107F114031946184802F0E3FD4FF4B5
:101CF00000737B610223BB6103233B6207F1140382
:101D00001946124802F0D6FD114B5B687B627B6A74
:101D100023F4C0437B627B6A43F0E0637B627B6AAF
:101D200043F480437B620A4A7B6A536000220021AD
:101D3000142002F09AFB142002F0B3FB00BF2837F6
:101D4000BD4680BD0064004000100240000C014010
:101D50000000014080B588B000AF786007F1100343
:101D600000221A605A609A60DA607B681B68164A23
:101D7000934224D1154B9B69144A43F40063936149
:101D8000124B9B6903F40063FB60FB680F4B9B697C
:101D90000E4A43F0040393610C4B9B6903F0040368
:101DA000BB60BB684FF480733B6100237B61002301
:101DB000BB6107F110031946054802F07BFD00BF27
:101DC0002037BD4680BD00BF002C014000100240FE
:101DD0000008014080B400AF00BFFDE780B400AF51
:101DE00000BFFDE780B400AF00BFFDE780B400AFE7
:101DF00000BFFDE780B400AF00BFFDE780B400AFD7
:101E000000BFBD4680BC704780B400AF00BFBD4678
:101E100080BC704780B400AF00BFBD4680BC704737
:101E200080B500AF00F068FD00BF80BD80B500AF99
:101E3000024802F00BFC00BF80BD00BFD8000020AC
:101E400080B500AF024801F0E9F800BF80BD00BFD7
:101E5000A800002080B500AF024802F00CF800BFD7
:101E600080BD00BF1C01002080B500AF402002F003
:101E7000BDFE00BF80BD80B400AF00BFBD4680BCCA
:101E80007047000080B582B002AFFFF729FA072340
:101E900000930123042232493248FFF7C9F907238E
:101EA0000093012305222E492F48FFF7C1F907238C
:101EB0000093012300222A492C48FFF7B9F9072390
:101EC00000930123022226492948FFF7B1F907238D
:101ED00000930123012222492648FFF7A9F907238D
:101EE0000093012303221E492348FFF7A1F907238A
:101EF0000093012306221A492048FFF799F9072386
:101F000000930123072216491D48FFF791F9072383
:101F100000930123082212491A48FFF789F9072381
:101F20000093012309220E491748FFF781F9002287
:101F300016491748FFF780FD042214491548FFF79A
:101F40007BFD154800F02EFC144800F02BFCFF2010
:101F500000F0E8FB802000F0F5FB00BFBD4680BD2F
:101F6000A8000020DC010020F0010020B4010020C6
:101F7000C801002004020020180200202C020020CA
:101F8000400200205402002068020020440100208A
:101F90007C020020840200208C0200209802002095
:101FA0002DE9B04FA2B000AFF867A04B1B78002B13
:101FB0001ED19F4B1B6800229A4693469D4BC3E956
:101FC00000AB9B4B5B680022984691469A4BC3E955
:101FD0000089974B9B6800221C461546974BC3E926
:101FE0000045924B1B780133DAB2904B1A7065E1D1
:101FF0008E4B1B78042B00F2C8808C4B1B7801336E
:10200000DBB28A4A1370894B1B78013BDA17BB6538
:10201000FA65884BD3E90023D7E91645294602FB28
:1020200001F0214601FB03F101442046A0FB0232EE
:102030007A673B677B6FCB187B677C4B1B78DBB287
:1020400000223B657A65D7E91423D7E91C01FEF726
:1020500055FF02460B4610461946754B1A68734BDE
:102060001B78B2FBF3F30022BB64FA64D7E9124594
:102070002346C3183B642B4641EB03037B646D4B43
:10208000D7E91012C3E90012684B1B78013BDA173D
:10209000BB63FA63684BD3E90023D7E90E452946B1
:1020A00002FB01F0214601FB03F101442046A0FBA5
:1020B0000232FA66BB66FB6ECB18FB665B4B1B7885
:1020C000DBB200223B637A63D7E90C23D7E91A011C
:1020D000FEF714FF02460B4610461946544B5A6849
:1020E000524B1B78B2FBF3F30022BB62FA62D7E9D2
:1020F0000A452346C3183B622B4641EB03037B6230
:102100004D4BD7E90812C3E90012484B1B78013B3D
:10211000DA17BB61FA61494BD3E90023D7E90645D9
:10212000294602FB01F0214601FB03F10144204650
:10213000A0FB02327A663B667B6ECB187B663B4B1C
:102140001B78DBB200223B617A61D7E90423D7E92F
:102150001801FEF7D3FE02460B463549896833481D
:102160000078B1FBF0F10020B960F860D7E90245D2
:10217000214651183960294643EB010179602F4B04
:10218000D7E90012C3E9001298E02A4BD3E90023F3
:102190001346A7F88630284BD3E900231346A7F847
:1021A0008430264BD3E900231346A7F88230B7F8D2
:1021B00086301B0A9BB2DAB2214B1A70B7F8863010
:1021C000DAB21F4B5A70B7F884301B0A9BB2DAB2EE
:1021D0001B4B9A70B7F88430DAB2194BDA70B7F843
:1021E00082301B0A9BB2DAB2154B1A71B7F88230F3
:1021F000DAB2134B5A71134B1B78002B02D0012B10
:1022000022D034E002220E494FF48A60FFF7A0F892
:1022100002220B4940F25240FFF79AF80222084985
:1022200040F20140FFF794F821E000BFA402002033
:102230008C010020A8020020B0020020B80200207B
:10224000D8020020B001002002221F494FF48A600A
:10225000FFF77EF802221C4940F25240FFF778F85F
:102260000222194940F20140FFF772F800BF174BF4
:10227000D3E900231649C1E90023164BD3E9002313
:102280001549C1E90023154BD3E900231449C1E9DD
:1022900000230E494FF000024FF00003C1E9002374
:1022A0000C494FF000024FF00003C1E900230B4935
:1022B0004FF000024FF00003C1E9002300BF883750
:1022C000BD46BDE8B08F00BFD8020020A8020020A4
:1022D000C0020020B0020020C8020020B802002086
:1022E000D002002080B586B000AF634B1B7801336D
:1022F000DAB2614B1A70604B1B78322B40F2B88017
:102300005D4B00221A704FF47A715C48FEF7ABFF08
:102310004FF47A715A48FEF7A6FF4FF47A71594884
:10232000FEF7A1FF4FF47A715748FEF79CFF534B1D
:102330001B8A184600F028F90346FB82504B1B8A83
:10234000184600F021F90346BB824E4B1B8A184603
:1023500000F08AF903467B824B4B1B8A184600F03B
:1023600083F903463B82B7F916301B121BB2DAB26F
:10237000464B1A70FB8ADAB2444B5A70B7F91430E4
:102380001B121BB2DAB2414B9A70BB8ADAB23F4BD6
:10239000DA70B7F912301B121BB2DAB23B4B1A716A
:1023A0007B8ADAB2394B5A71B7F910301B121BB263
:1023B000DAB2364B9A713B8ADAB2344BDA710822C0
:1023C00032494FF48060FEF7C3FF4FF47A71304812
:1023D000FEF749FF4FF47A712E48FEF744FF2C4B6D
:1023E0001B8A184600F05CF80346FB81294B1B8AC8
:1023F000184600F055F80346BB81FB891B0A9BB2C7
:10240000DAB2224B1A70FB89DAB2204B5A70BB89C0
:102410001B0A9BB2DAB21D4B9A70BB89DAB21B4B16
:10242000DA700422194940F20240FEF791FF1A487F
:1024300000F0CBF9B860194800F0C7F97860BB68C4
:102440001B0ADAB2114B1A70BB68DAB20F4B5A7022
:102450007B681B0ADAB20D4B9A707B68DAB20B4BC1
:10246000DA700422094940F20140FEF771FF00E0F2
:1024700000BF1837BD4680BDE0020020B401002037
:10248000C80100200402002018020020E4020020FD
:10249000DC010020F00100208C02002098020020C6
:1024A00080B584B000AF0346FB80FB881846FEF77A
:1024B00087FC03461846FEF763F827A3D3E90023F9
:1024C000FEF7B6F802460B461046194624A3D3E998
:1024D0000023FEF7D7F902460B4610461946FEF7D1
:1024E00069FB0346FB60F868FEF74AF84FF000020C
:1024F000234BFEF7C7F902460B46104619461AA3AE
:10250000D3E90023FDF7DEFE02460B4610461946CE
:1025100017A3D3E90023FEF7B5F902460B46104690
:10252000194615A3D3E90023FEF782F802460B46AD
:1025300010461946FEF73EFB0346BB601149B868DA
:10254000FDF706FE03461846FEF7B8FC03469BB2AD
:1025500018461037BD4680BDB4D934E70C684A3FF1
:102560004A9593543949E53F255987A3AB74873F72
:1025700054B252F7B7BA723F10B056ED9A90C23FBC
:10258000000014400000C84280B584B000AF03468C
:10259000FB80FB881846FDF7E1FF25A3D3E9002364
:1025A000FEF746F802460B461046194622A3D3E929
:1025B0000023FEF767F902460B461046194603F062
:1025C000DFFE1FA3D3E90023FEF732F802460B46D5
:1025D000104619461CA3D3E90023FDF771FE0246FD
:1025E0000B46104619461AA3D3E90023FDF768FEEF
:1025F00002460B461046194617A3D3E90023FEF7FF
:1026000041F902460B4610461946FEF7D3FA034637
:10261000FB601349F868FDF79BFD03461846FEF77B
:1026200027FC03461BB218461037BD4680BD00BFCD
:10263000683F524486D509C00000000000FEAF404C
:10264000AA8251499DD058403A234A7B837F354026
:102650005C8FC2F5285C0940EA95B20C712CF03F02
:1026600000002041000000002DE9B04384B000AF1D
:102670000346FB80FB881846FDF770FF22A3D3E9D1
:102680000023FDF7D5FF02460B4621A1D1E9000149
:10269000FDF716FE02460B4614461D46FB881846FB
:1026A000FDF75CFF1CA3D3E90023FDF7C1FF024641
:1026B0000B4690469946FB881846FDF74FFF0246A9
:1026C0000B4640464946FDF7B3FF02460B462046FF
:1026D0002946FDF7F7FD02460B4610461946FEF760
:1026E00069FA0346FB600E49F868FDF731FD0346C1
:1026F0001846FEF7BDFB03461BB218461037BD4611
:10270000BDE8B083AFF300808A27D436729BA23F26
:1027100002B7EEE6A9D65440AC8F5D6384E9CC3EA7
:102720000000204180B582B000AF0346FB71FB7909
:1027300019460348FFF796F900BF0837BD4680BD2C
:102740008402002080B582B000AF0346FB71FB79A4
:1027500019460348FFF786F900BF0837BD4680BD1C
:102760007C02002080B483B000AF0346FB80FB886E
:10277000102B02D0402B06D00BE0084B9B68013396
:10278000064A936005E0064B9B680133044A936058
:1027900000BF00BF0C37BD4680BC70478C020020D4
:1027A0009802002080B582B000AF78607B6800227C
:1027B0005A607B6800229A6000F0B0F802467B689D
:1027C0001A6000BF0837BD4680BD80B586B000AF37
:1027D000786000F0A3F838617B681B683A69D31A07
:1027E0007B617B69002B01D101237B617B689A6847
:1027F0007B685B68D31A4FF47A7203FB02F27B6941
:10280000B2FBF3F3FB607B689A687B685A607B6875
:102810003A691A60FB6818461837BD4680BD00004B
:10282000FFF729FB0B480C490C4A002302E0D4585F
:10283000C4500433C4188C42F9D3094A094C00230C
:1028400001E013600432A242FBD303F075FDFEF7F2
:102850005FFE7047000000205C000020D067000889
:102860006000002028040020FEE7000080B500AFD3
:10287000084B1B68074A43F010031360032001F064
:10288000E9FD0F2000F008F8FFF742F90023184691
:1028900080BD00BF0020024080B582B000AF7860EC
:1028A000124B1A68124B1B7819464FF47A73B3FB1C
:1028B000F1F3B2FBF3F3184601F001FE0346002BDF
:1028C00001D001230EE07B680F2B0AD80022796823
:1028D0004FF0FF3001F0C9FD064A7B68136000230A
:1028E00000E0012318460837BD4680BD00000020E7
:1028F000080000200400002080B400AF054B1B78C6
:102900001A46054B1B681344034A136000BFBD46BB
:1029100080BC704708000020EC02002080B400AFAB
:10292000024B1B681846BD4680BC7047EC02002075
:1029300080B586B000AF78600023FB7500233B6153
:102940000023BB600023FB607B68002B01D10123C7
:10295000BEE07B689B68002B7B689B6A002B09D1DB
:102960007B680022DA627B68002283F82420786882
:10297000FFF700F9786800F07DFD0346FB757B6882
:102980009B6A03F01003002B40F09980FB7D002B25
:1029900040F095807B689B6A23F4885323F0020300
:1029A00043F002027B689A627B685A687B68DB6945
:1029B0001A437B681B7B5B001343BA681343BB60FD
:1029C0007B689B68B3F5807F03D07B689B68012B95
:1029D00002D14FF4807300E000233A6913433B6156
:1029E0007B681B7D012B19D17B681B7B002B09D1D8
:1029F0007B689B69013B5A033B69134343F40063C3
:102A00003B610BE07B689B6A43F020027B689A6223
:102A10007B68DB6A43F001027B68DA627B681B68D3
:102A20005B6823F469417B681B683A690A435A6012
:102A30007B681B689A68284B13407A681268B968EB
:102A40000B4393607B689B68B3F5807F03D07B6802
:102A50009B68012B04D17B681B69013B1B05FB6054
:102A60007B681B68DB6A23F470017B681B68FA686B
:102A70000A43DA627B681B689A68184B1340BA688D
:102A80009A420BD17B680022DA627B689B6A23F052
:102A9000030343F001027B689A6218E07B689B6A3B
:102AA00023F0120343F010027B689A627B68DB6AB2
:102AB00043F001027B68DA620123FB7507E07B6863
:102AC0009B6A43F010027B689A620123FB75FB7DD1
:102AD00018461837BD4680BDFDF7E1FFFE0E1FFF0B
:102AE00080B584B000AF78600023FB737B6893F8F7
:102AF0002430012B01D1022398E07B68012283F866
:102B00002420786800F05CFC0346FB73FB7B002B01
:102B100040F087807B689B6A23F4407323F00103B5
:102B200043F480727B689A627B681B68414A9342D7
:102B300005D1414B5B6803F47023002B15D17B68F2
:102B40009B6A23F480127B689A627B681B685B68CF
:102B500003F48063002B26D07B689B6A23F44053E8
:102B600043F480527B689A621DE07B689B6A43F461
:102B700080127B689A627B681B682F4A934204D05C
:102B80007B681B682B4A93420DD12B4B5B6803F487
:102B90008063002B07D07B689B6A23F4405343F487
:102BA00080527B689A627B689B6A03F48053002B97
:102BB00006D07B68DB6A23F006027B68DA6202E0FB
:102BC0007B680022DA627B68002283F824207B681D
:102BD0001B686FF002021A607B681B689B6803F435
:102BE0006023B3F5602F13D17B681B68114A9342B1
:102BF00005D1114B5B6803F47023002B08D17B686F
:102C00001B689A687B681B6842F4A0029A600CE01B
:102C10007B681B689A687B681B6842F480129A6024
:102C200003E07B68002283F82420FB7B18461037E2
:102C3000BD4680BD002801400024014090B587B00A
:102C400000AF7860396000237B610023FB600023C4
:102C50003B61FFF763FE78617B681B689B6803F448
:102C60008073002B0BD07B689B6A43F020027B684B
:102C70009A627B68002283F824200123D3E07B68DA
:102C80001B685B6803F48073002B31D17B681B6881
:102C9000DB6A03F47003002B2AD121E03B68B3F117
:102CA000FF3F1DD03B68002B07D0FFF737FE0246E1
:102CB0007B69D31A3A689A4212D27B681B681B68F8
:102CC00003F00203002B0BD17B689B6A43F00402E4
:102CD0007B689A627B68002283F824200323A2E0A9
:102CE0007B681B681B6803F00203002BD6D070E0E2
:102CF0004F4B1C68022002F045FC0346B4FBF3F284
:102D00007B681B6819694B4B0B40002B18D17B6803
:102D10001B68D968484B0B40002B11D17B681B689E
:102D20001969464B0B40002B08D17B681B68D9689A
:102D3000434B0B40002B01D1142320E029231EE03C
:102D40007B681B6819693D4B0B40002B06D17B68E3
:102D50001B68D9683A4B0B40002B0DD07B681B6871
:102D60001969384B0B40002B08D17B681B68D96868
:102D7000344B0B40002B01D1542300E0FC2302FB19
:102D800003F33B6121E03B68B3F1FF3F1AD03B689E
:102D9000002B07D0FFF7C2FD02467B69D31A3A68C1
:102DA0009A420FD2FB683A699A420BD97B689B6AB8
:102DB00043F004027B689A627B68002283F8242037
:102DC000032330E0FB680133FB60FB683A699A42F9
:102DD000D9D87B681B686FF012021A607B689B6A07
:102DE00043F400727B689A627B681B689B6803F4FB
:102DF0006023B3F5602F15D17B681B7B002B11D1AD
:102E00007B689B6A23F480727B689A627B689B6A0A
:102E100003F48053002B05D17B689B6A43F00102C9
:102E20007B689A62002318461C37BD4690BD00BFE0
:102E3000000000202449922424499200922449123F
:102E4000922449004992240080B586B000AFF86012
:102E5000B9607A600023FB75FB681B68644A934283
:102E600004D0FB681B68634A934206D1604B5B68E1
:102E700003F47023002B40F0B380FB6893F82430F8
:102E8000012B01D10223AEE0FB68012283F824204C
:102E9000F86800F095FA0346FB75FB7D002B40F0C7
:102EA0009A80FB689B6A23F4706323F0010343F468
:102EB0008072FB689A62FB681B684E4A934205D198
:102EC0004B4B5B6803F47023002B15D1FB689B6AA6
:102ED00023F48012FB689A62FB681B685B6803F44A
:102EE0008063002B26D0FB689B6A23F4405343F495
:102EF0008052FB689A621DE0FB689B6A43F4801273
:102F0000FB689A62FB681B68394A934204D0FB68ED
:102F10001B68384A93420DD1354B5B6803F48063DC
:102F2000002B07D0FB689B6A23F4405343F4805284
:102F3000FB689A62FB689B6A03F48053002B06D0FF
:102F4000FB68DB6A23F00602FB68DA6202E0FB68DA
:102F50000022DA62FB68002283F82420FB681B6AE7
:102F6000254A9A62FB681B6A244ADA62FB681B6A7C
:102F7000234A1A63FB681B686FF002021A60FB6841
:102F80001B689A68FB681B6842F480729A60FB6851
:102F9000186AFB681B684C331946BA687B6801F0F5
:102FA000F5FAFB681B689B6803F46023B3F5602F98
:102FB00008D1FB681B689A68FB681B6842F4A00292
:102FC0009A600FE0FB681B689A68FB681B6842F414
:102FD00080129A6006E0FB68002283F8242001E05A
:102FE0000123FB75FB7D18461837BD4680BD00BF29
:102FF0000024014000280140F73400087335000820
:103000008F35000880B483B000AF78607B681B68A0
:10301000DB6C18460C37BD4680BC704780B584B069
:1030200000AF78607B681B681B68FB607B681B686F
:103030005B68BB60BB6803F02003002B3ED0FB68DD
:1030400003F00203002B39D07B689B6A03F0100366
:10305000002B05D17B689B6A43F400727B689A62FF
:103060007B681B689B6803F46023B3F5602F1DD158
:103070007B681B7B002B19D17B681B685A687B68B7
:103080001B6822F020025A607B689B6A23F48072DE
:103090007B689A627B689B6A03F48053002B05D19E
:1030A0007B689B6A43F001027B689A627868FEF74E
:1030B00077FF7B681B686FF012021A60BB6803F031
:1030C0008003002B4DD0FB6803F00403002B48D095
:1030D0007B689B6A03F01003002B05D17B689B6A19
:1030E00043F400527B689A627B681B689B6803F418
:1030F000E043B3F5E04F12D07B681B685B6803F4D4
:103100008063002B25D17B681B689B6803F46023D8
:10311000B3F5602F1DD17B681B7B002B19D17B6819
:103120001B685A687B681B6822F080025A607B68C3
:103130009B6A23F480527B689A627B689B6A03F4E3
:103140008073002B05D17B689B6A43F001027B688A
:103150009A62786800F035FA7B681B686FF00C02A1
:103160001A60BB6803F04003002B12D0FB6803F029
:103170000103002B0DD07B689B6A43F480327B688F
:103180009A62786800F012F87B681B686FF00102A1
:103190001A6000BF1037BD4680BD80B483B000AF59
:1031A000786000BF0C37BD4680BC704780B483B0E8
:1031B00000AF786000BF0C37BD4680BC704780B45C
:1031C00083B000AF786000BF0C37BD4680BC70474D
:1031D00080B485B000AF786039600023FB730023B2
:1031E000BB607B6893F82430012B01D10223DCE023
:1031F0007B68012283F824203B685B68062B1CD87F
:103200007B681B68596B3B685A6813469B001344E4
:10321000053B1F2202FA03F3DB4319403B681868A1
:103220003B685A6813469B001344053B00FA03F2BF
:103230007B681B680A435A633CE03B685B680C2B65
:103240001CD87B681B68196B3B685A6813469B0047
:103250001344233B1F2202FA03F3DB4319403B686C
:1032600018683B685A6813469B001344233B00FAD6
:1032700003F27B681B680A431A631BE07B681B68C8
:10328000D96A3B685A6813469B001344413B1F228E
:1032900002FA03F3DB4319403B6818683B685A683D
:1032A00013469B001344413B00FA03F27B681B6802
:1032B0000A43DA623B681B68092B1CD97B681B68D0
:1032C000D9683B681A6813465B0013441E3B07220B
:1032D00002FA03F3DB4319403B6898683B681A68BD
:1032E00013465B0013441E3B00FA03F27B681B6825
:1032F0000A43DA6019E07B681B6819693B681A6841
:1033000013465B001344072202FA03F3DB43194020
:103310003B6898683B681A6813465B00134400FAE0
:1033200003F27B681B680A431A613B681B68102B19
:1033300003D03B681B68112B32D17B681B681D4A88
:10334000934225D17B681B689B6803F40003002B24
:1033500026D17B681B689A687B681B6842F4000270
:103360009A603B681B68102B1AD1134B1B68134AD9
:10337000A2FB03239A0C13469B0013445B00BB6023
:1033800002E0BB68013BBB60BB68002BF9D107E0E2
:103390007B689B6A43F020027B689A620123FB737F
:1033A0007B68002283F82420FB7B18461437BD4637
:1033B00080BC7047002401400000002083DE1B43D6
:1033C00080B584B000AF78600023FB600023BB6051
:1033D0007B681B689B6803F00103012B40D07B686E
:1033E0001B689A687B681B6842F001029A601F4B59
:1033F0001B681F4AA2FB03239B0CBB6002E0BB6857
:10340000013BBB60BB68002BF9D1FFF787FAF8607E
:103410001FE0FFF783FA0246FB68D31A022B18D984
:103420007B681B689B6803F00103012B11D07B684C
:103430009B6A43F010027B689A627B68DB6A43F008
:1034400001027B68DA627B68002283F82420012372
:1034500007E07B681B689B6803F00103012BD8D150
:10346000002318461037BD4680BD00BF0000002075
:1034700083DE1B4380B584B000AF78600023FB601F
:103480007B681B689B6803F00103012B2ED17B68CE
:103490001B689A687B681B6822F001029A60FFF73C
:1034A0003DFAF8601BE0FFF739FA0246FB68D31AD1
:1034B000022B14D97B681B689B6803F00103012B66
:1034C0000DD17B689B6A43F010027B689A627B682F
:1034D000DB6A43F001027B68DA62012307E07B6864
:1034E0001B689B6803F00103012BDCD00023184606
:1034F0001037BD4680BD80B584B000AF78607B6872
:103500005B6AFB60FB689B6A03F05003002B27D1CA
:10351000FB689B6A43F40072FB689A62FB681B6855
:103520009B6803F46023B3F5602F15D1FB681B7B08
:10353000002B11D1FB689B6A23F48072FB689A62AE
:10354000FB689B6A03F48053002B05D1FB689B6AE0
:1035500043F00102FB689A62F868FEF721FD04E07F
:10356000FB681B6A1B6B7868984700BF1037BD4625
:1035700080BD80B584B000AF78607B685B6AFB601B
:10358000F868FFF70AFE00BF1037BD4680BD80B562
:1035900084B000AF78607B685B6AFB60FB689B6A05
:1035A00043F04002FB689A62FB68DB6A43F0040266
:1035B000FB68DA62F868FFF702FE00BF1037BD460D
:1035C00080BD80B483B000AF786000BF0C37BD46CB
:1035D00080BC704780B584B000AF78607B68002BFA
:1035E00001D10123EDE07B6893F82030DBB2002BA2
:1035F00002D17868FEF746FB7B681B681A687B6817
:103600001B6842F001021A60FFF788F9F86012E0C7
:10361000FFF784F90246FB68D31A0A2B0BD97B68A3
:103620005B6A43F400327B685A627B68052283F848
:1036300020200123C5E07B681B685B6803F0010361
:10364000002BE5D07B681B681A687B681B6822F03A
:1036500002021A60FFF762F9F86012E0FFF75EF904
:103660000246FB68D31A0A2B0BD97B685B6A43F4CA
:1036700000327B685A627B68052283F82020012390
:103680009FE07B681B685B6803F00203002BE5D1B9
:103690007B681B7E012B08D17B681B681A687B68DE
:1036A0001B6842F080021A6007E07B681B681A689A
:1036B0007B681B6822F080021A607B685B7E012BAE
:1036C00008D17B681B681A687B681B6842F040025F
:1036D0001A6007E07B681B681A687B681B6822F029
:1036E00040021A607B689B7E012B08D17B681B68B7
:1036F0001A687B681B6842F020021A6007E07B684A
:103700001B681A687B681B6822F020021A607B68BD
:10371000DB7E012B08D17B681B681A687B681B68FD
:1037200022F010021A6007E07B681B681A687B6849
:103730001B6842F010021A607B681B7F012B08D1C6
:103740007B681B681A687B681B6842F008021A6075
:1037500007E07B681B681A687B681B6822F0080218
:103760001A607B685B7F012B08D17B681B681A6835
:103770007B681B6842F004021A6007E07B681B68E4
:103780001A687B681B6822F004021A607B689A68DA
:103790007B68DB681A437B681B691A437B685B693B
:1037A00042EA03017B685B685A1E7B681B680A4318
:1037B000DA617B6800225A627B68012283F820204C
:1037C000002318461037BD4680BD80B487B000AFD7
:1037D000786039607B681B687B617B6893F8203078
:1037E000FB74FB7C012B03D0FB7C022B40F0AA80F6
:1037F0007B69D3F8003243F001027B69C3F80022F1
:103800003B685B6903F01F03012202FA03F3FB60CC
:103810007B69D3F81C22FB68DB431A407B69C3F841
:103820001C223B68DB69002B23D17B69D3F80C2277
:10383000FB68DB431A407B69C3F80C223B68DB68FA
:1038400019043B685B689BB23A68526919437B690B
:10385000483243F832103B689B6819043B681B6888
:103860009AB23B685B690A4379694833DB000B44D1
:103870005A603B68DB69012B22D17B69D3F80C22AB
:10388000FB681A437B69C3F80C223B681B68190468
:103890003B685B689BB23A68526919437B6948325E
:1038A00043F832103B689B6819043B68DB689AB2A6
:1038B0003B685B690A4379694833DB000B445A6013
:1038C0003B689B69002B09D17B69D3F80422FB6814
:1038D000DB431A407B69C3F8042207E07B69D3F815
:1038E0000422FB681A437B69C3F804223B681B6906
:1038F000002B09D17B69D3F81422FB68DB431A4003
:103900007B69C3F8142207E07B69D3F81422FB68B3
:103910001A437B69C3F814223B681B6A012B07D149
:103920007B69D3F81C22FB681A437B69C3F81C220D
:103930007B69D3F8003223F001027B69C3F80022CF
:10394000002306E07B685B6A43F480227B685A624E
:10395000012318461C37BD4680BC704780B584B033
:1039600000AF78607B6893F82030DBB2012B2ED15A
:103970007B68022283F820207B681B681A687B68BA
:103980001B6822F001021A60FEF7C8FFF86012E01F
:10399000FEF7C4FF0246FB68D31A0A2B0BD97B68DB
:1039A0005B6A43F400327B685A627B68052283F8C5
:1039B0002020012312E07B681B685B6803F0010391
:1039C000002BE5D17B6800225A62002306E07B6869
:1039D0005B6A43F400227B685A6201231846103761
:1039E000BD4680BD80B489B000AFF860B9607A6030
:1039F0003B60FB6893F82030FB77FB681B689B6893
:103A0000BB61FB7F012B03D0FB7F022B40F0AD801D
:103A1000BB6903F08063002B0AD1BB6903F000632C
:103A2000002B05D1BB6903F08053002B00F095807B
:103A3000BB691B0E03F003037B6101227B699A4083
:103A40003B681A60BB689B68002B0DD1BB681B6884
:103A50005A05BB68DB68F96809681A437B69183343
:103A60001B010B441A600FE0BB685B68DA00BB689F
:103A70009B681A43BB68DB68F96809681A437B696D
:103A800018331B010B441A60FB681968BB681A697C
:103A90007B6918331B010B4404331A60BB681B7D20
:103AA000012B11D1FB681A687B6918331B01134481
:103AB00004331B68FA68116843F480727B69183319
:103AC0001B010B4404331A607B6807331B781A060A
:103AD0007B6806331B781B041A437B6805331B780D
:103AE0001B0213437A68043212781046FA68116890
:103AF00043EA00027B691B010B4403F5C6731A609D
:103B00007B6803331B781A067B6802331B781B041F
:103B10001A437B6801331B781B0213437A681278BF
:103B20001046FA68116843EA00027B691B010B44E6
:103B300003F5C4731A60FB681A687B6918331B01AC
:103B400013441B68FA68116843F001027B6918335B
:103B50001B010B441A6000230EE0FB685B6A43F410
:103B60000012FB685A62012306E0FB685B6A43F4BB
:103B70008022FB685A62012318462437BD4680BC68
:103B8000704780B485B000AF78600023FB607B682D
:103B900093F82030FB72FB7A012B02D0FB7A022BC8
:103BA0001DD17B681B689B6803F08063002B02D0EB
:103BB000FB680133FB607B681B689B6803F0006354
:103BC000002B02D0FB680133FB607B681B689B689D
:103BD00003F08053002B02D0FB680133FB60FB68CD
:103BE00018461437BD4680BC704780B487B000AF1C
:103BF000F860B9607A603B60FB6893F82030FB7531
:103C0000FB7D012B03D0FB7D022B40F00381BB68C1
:103C1000002B0ED1FB681B68DB6803F00303002B4D
:103C200016D1FB685B6A43F40012FB685A620123F9
:103C3000F7E0FB681B681B6903F00303002B07D147
:103C4000FB685B6A43F40012FB685A620123E8E0F8
:103C5000FB681A68BB681B331B0113441B6803F025
:103C600004027B689A607B689B68002B0CD1FB6820
:103C70001A68BB681B331B0113441B685B0DC3F33D
:103C80000A027B681A600BE0FB681A68BB681B338A
:103C90001B0113441B68DB0823F060427B685A60F9
:103CA000FB681A68BB681B331B0113441B6803F0D5
:103CB00002027B68DA60FB681A68BB681B331B0171
:103CC000134404331B6803F00803002B03D07B6804
:103CD00008221A610BE0FB681A68BB681B331B01E2
:103CE000134404331B6803F00F027B681A61FB68FE
:103CF0001A68BB681B331B01134404331B681B0A7F
:103D0000DAB27B689A61FB681A68BB681B331B01D7
:103D1000134404331B681B0C9AB27B685A61FB681E
:103D20001A68BB681B01134403F5DC731B68DAB225
:103D30003B681A70FB681A68BB681B01134403F5E3
:103D4000DC731B681A0A3B680133D2B21A70FB6835
:103D50001A68BB681B01134403F5DC731B681A0C5B
:103D60003B680233D2B21A70FB681A68BB681B0149
:103D7000134403F5DC731B681A0E3B680333D2B29D
:103D80001A70FB681A68BB681B01134403F5DE73E5
:103D90001A683B680433D2B21A70FB681A68BB68B1
:103DA0001B01134403F5DE731B681A0A3B680533D5
:103DB000D2B21A70FB681A68BB681B01134403F582
:103DC000DE731B681A0C3B680633D2B21A70FB68AC
:103DD0001A68BB681B01134403F5DE731B681A0ED7
:103DE0003B680733D2B21A70BB68002B08D1FB685E
:103DF0001B68DA68FB681B6842F02002DA6007E0A3
:103E0000FB681B681A69FB681B6842F020021A6194
:103E1000002306E0FB685B6A43F48022FB685A6279
:103E2000012318461C37BD4680BC704780B485B05E
:103E300000AF786039607B6893F82030FB73FB7BC0
:103E4000012B02D0FB7B022B09D17B681B685969CF
:103E50007B681B683A680A435A61002306E07B6866
:103E60005B6A43F480227B685A6201231846143748
:103E7000BD4680BC704780B58AB000AF7860002333
:103E80007B627B681B685B693B627B681B685B6865
:103E9000FB617B681B689B68BB617B681B68DB6898
:103EA0007B617B681B681B693B617B681B689B6946
:103EB000FB603B6A03F00103002B7CD0BB6903F07D
:103EC0000103002B23D07B681B6801229A60BB6929
:103ED00003F00203002B03D0786800F083F916E0AA
:103EE000BB6903F00403002B04D07B6A43F4006336
:103EF0007B620CE0BB6903F00803002B04D07B6AF3
:103F000043F480537B6202E0786800F086F9BB6975
:103F100003F48073002B24D07B681B684FF48072FD
:103F20009A60BB6903F40073002B03D0786800F03B
:103F300062F916E0BB6903F48063002B04D07B6A4E
:103F400043F400537B620CE0BB6903F40063002B75
:103F500004D07B6A43F480437B6202E0786800F01F
:103F600065F9BB6903F48033002B24D07B681B68A0
:103F70004FF480329A60BB6903F40033002B03D006
:103F8000786800F041F916E0BB6903F48023002B48
:103F900004D07B6A43F400437B620CE0BB6903F40A
:103FA0000023002B04D07B6A43F480337B6202E061
:103FB000786800F044F93B6A03F00803002B0CD04A
:103FC0007B6903F01003002B07D07B6A43F4007376
:103FD0007B627B681B681022DA603B6A03F0040393
:103FE000002B0BD07B6903F00803002B06D07B6805
:103FF0001B680822DA60786800F02AF93B6A03F04F
:104000000203002B09D07B681B68DB6803F0030305
:10401000002B02D07868FDF7C7F93B6A03F0400334
:10402000002B0CD03B6903F01003002B07D07B6AF8
:1040300043F480637B627B681B6810221A613B6AD1
:1040400003F02003002B0BD03B6903F00803002B87
:1040500006D07B681B6808221A61786800F00AF9AC
:104060003B6A03F01003002B09D07B681B681B69B7
:1040700003F00303002B02D0786800F0F2F83B6AEB
:1040800003F40033002B0BD0FB6903F01003002B6B
:1040900006D07B681B6810225A60786800F0F3F83D
:1040A0003B6A03F48033002B0BD0FB6903F0080359
:1040B000002B06D07B681B6808225A60786800F0E5
:1040C000EBF83B6A03F40043002B7BD0FB6903F061
:1040D0000403002B72D03B6A03F48073002B08D0DA
:1040E000FB6803F00103002B03D07B6A43F001035C
:1040F0007B623B6A03F40073002B08D0FB6803F07B
:104100000203002B03D07B6A43F002037B623B6A0D
:1041100003F48063002B08D0FB6803F00403002B3A
:1041200003D07B6A43F004037B623B6A03F40063C1
:10413000002B43D0FB6803F07003002B3ED0FB68DC
:1041400003F07003602B2BD0602B2ED8502B22D085
:10415000502B2AD8402B19D0402B26D8302B10D0EA
:10416000302B22D8102B02D0202B05D01DE07B6AEB
:1041700043F008037B6219E07B6A43F010037B6223
:1041800014E07B6A43F020037B620FE07B6A43F01C
:1041900040037B620AE07B6A43F080037B6205E0B8
:1041A0007B6A43F480737B6200E000BF7B681B681E
:1041B0009A697B681B6822F070029A617B681B68B1
:1041C00004225A607B6A002B08D07B685A6A7B6A9B
:1041D0001A437B685A62786800F067F800BF283796
:1041E000BD4680BD80B483B000AF786000BF0C379F
:1041F000BD4680BC704780B483B000AF786000BF1C
:104200000C37BD4680BC704780B483B000AF786087
:1042100000BF0C37BD4680BC704780B483B000AF90
:10422000786000BF0C37BD4680BC704780B483B057
:1042300000AF786000BF0C37BD4680BC704780B4CB
:1042400083B000AF786000BF0C37BD4680BC7047BC
:1042500080B483B000AF786000BF0C37BD4680BC2F
:10426000704780B483B000AF786000BF0C37BD46A4
:1042700080BC704780B483B000AF786000BF0C375B
:10428000BD4680BC704780B483B000AF786000BF8B
:104290000C37BD4680BC704780B483B000AF7860F7
:1042A00000BF0C37BD4680BC704780B483B000AF00
:1042B000786000BF0C37BD4680BC704780B485B0C5
:1042C00000AF78607B6803F00703FB600C4BDB6892
:1042D000BB60BA684FF6FF031340BB60FB681A026D
:1042E000BB68134343F0BF6343F40033BB60044A2D
:1042F000BB68D36000BF1437BD4680BC704700BFA9
:1043000000ED00E080B400AF044BDB681B0A03F053
:1043100007031846BD4680BC704700BF00ED00E0B3
:1043200080B483B000AF0346FB7197F90730002BD0
:104330000BDBFB7903F01F02064997F907305B0995
:10434000012000FA02F241F8232000BF0C37BD46DD
:1043500080BC704700E100E080B483B000AF03464A
:104360003960FB7197F90730002B0ADB3B68DAB242
:104370000C4997F907301201D2B20B4483F800239D
:104380000AE03B68DAB20849FB7903F00F03043B0B
:104390001201D2B20B441A7600BF0C37BD4680BC66
:1043A000704700BF00E100E000ED00E080B489B09C
:1043B00000AFF860B9607A60FB6803F00703FB6147
:1043C000FB69C3F10703042B28BF0423BB61FB690E
:1043D0000433062B02D9FB69033B00E000237B6119
:1043E0004FF0FF32BB6902FA03F3DA43BB681A40AD
:1043F0007B699A404FF0FF317B6901FA03F3D9439F
:104400007B680B40134318462437BD4680BC704779
:1044100080B582B000AF78607B68013BB3F1807FEC
:1044200001D301230FE00A4A7B68013B53600F214F
:104430004FF0FF30FFF790FF054B00229A60044BCE
:1044400007221A60002318460837BD4680BD00BF0A
:1044500010E000E080B582B000AF78607868FFF7C8
:104460002DFF00BF0837BD4680BD80B586B000AFC8
:104470000346B9607A60FB7300237B61FFF742FF5C
:1044800078617A68B9687869FFF790FF024697F912
:104490000F3011461846FFF75FFF00BF1837BD46C3
:1044A00080BD80B582B000AF0346FB7197F907303D
:1044B0001846FFF735FF00BF0837BD4680BD80B501
:1044C00082B000AF78607868FFF7A2FF0346184615
:1044D0000837BD4680BD000080B485B000AF78606D
:1044E0000023FB607B68002B01D1012343E07B6844
:1044F0001B681A46224B1344224AA2FB03231B09C2
:104500009A007B681A647B681F4ADA637B68022220
:1045100083F821207B681B681B68FB60FB6823F421
:104520007F5323F03003FB607B685A687B689B688D
:104530001A437B68DB681A437B681B691A437B68F4
:104540005B691A437B689B691A437B68DB69134389
:10455000FA681343FB607B681B68FA681A607B6823
:1045600000229A637B68012283F821207B68002265
:1045700083F82020002318461437BD4680BC7047BE
:10458000F8FFFDBFCDCCCCCC0000024080B586B09A
:1045900000AFF860B9607A603B600023FB75FB6890
:1045A00093F82030012B01D102234BE0FB6801225C
:1045B00083F82020FB6893F82130DBB2012B3AD13D
:1045C000FB68022283F82120FB6800229A63FB68C3
:1045D0001B681A68FB681B6822F001021A603B68BE
:1045E0007A68B968F86800F037F9FB68DB6A002B75
:1045F00008D0FB681B681A68FB681B6842F00E0253
:104600001A600FE0FB681B681A68FB681B6822F0E1
:1046100004021A60FB681B681A68FB681B6842F09A
:104620000A021A60FB681B681A68FB681B6842F084
:1046300001021A6005E0FB68002283F820200223B3
:10464000FB75FB7D18461837BD4680BD80B584B02C
:1046500000AF78607B68DB6B1B68FB607B681B6866
:104660001B68BB607B681B6C04229A40FB6813408C
:10467000002B4FD0BB6803F00403002B4AD07B68AB
:104680001B681B6803F02003002B07D17B681B68A5
:104690001A687B681B6822F004021A607B681B683A
:1046A000664A934229D07B681B68654A934222D0B0
:1046B0007B681B68634A93421AD07B681B68624A16
:1046C000934212D07B681B68604A93420AD07B6891
:1046D0001B685F4A934202D14FF480030EE04FF013
:1046E00080630BE04FF4802308E04FF4804305E043
:1046F0004FF4806302E0402300E00423554A5360F6
:104700007B68DB6A002B00F094807B68DB6A78684A
:1047100098478EE07B681B6C02229A40FB6813402E
:10472000002B56D0BB6803F00203002B51D07B68EE
:104730001B681B6803F02003002B0BD17B681B68F0
:104740001A687B681B6822F00A021A607B680122E3
:1047500083F821207B681B68384A934229D07B6804
:104760001B68374A934222D07B681B68354A9342C4
:104770001AD07B681B68344A934212D07B681B684E
:10478000324A93420AD07B681B68314A934202D175
:104790004FF400130EE04FF000730BE04FF40033C2
:1047A00008E04FF4005305E04FF4007302E02023CB
:1047B00000E00223274A53607B68002283F8202010
:1047C0007B689B6A002B34D07B689B6A786898472B
:1047D0002FE07B681B6C08229A40FB681340002B7B
:1047E00028D0BB6803F00803002B23D07B681B682C
:1047F0001A687B681B6822F00E021A607B681A6CCC
:104800007B68DB6B012101FA02F25A607B680122AE
:104810009A637B68012283F821207B68002283F859
:1048200020207B681B6B002B04D07B681B6B786897
:10483000984700BF00BF1037BD4680BD080002404A
:104840001C00024030000240440002405800024078
:104850006C0002400000024080B485B000AFF860F8
:10486000B9607A603B60FB681A6CFB68DB6B012106
:1048700001FA02F25A60FB681B683A685A60FB68EA
:104880005B68102B08D1FB681B687A689A60FB682C
:104890001B68BA68DA6007E0FB681B68BA689A6050
:1048A000FB681B687A68DA6000BF1437BD4680BCBD
:1048B0007047000080B48BB000AF7860396000238F
:1048C0007B6200233B6269E101227B6A02FA03F307
:1048D000FB613B681B68FA691340BB61BA69FB69FD
:1048E0009A4240F058813B685B689A4A93425ED096
:1048F000984A934275D8984A934258D0964A934220
:104900006FD8964A934252D0944A934269D8944AB7
:1049100093424CD0924A934263D8924A934246D0F3
:10492000904A93425DD8122B2AD8122B59D801A253
:1049300052F823F0AF490008894900089B49000854
:10494000DD490008E3490008E3490008E34900089D
:10495000E3490008E3490008E3490008E349000887
:10496000E3490008E3490008E3490008E349000877
:10497000E3490008E349000891490008A5490008F7
:10498000794A934213D02CE03B68DB683B6229E014
:104990003B68DB6804333B6224E03B68DB68083338
:1049A0003B621FE03B68DB680C333B621AE03B680C
:1049B0009B68002B02D104233B6213E03B689B6899
:1049C000012B05D108233B627B68FA691A6109E073
:1049D00008233B627B68FA695A6103E000233B626B
:1049E00000E000BFBB69FF2B01D87B6801E07B685A
:1049F00004337B61BB69FF2B02D87B6A9B0002E01A
:104A00007B6A083B9B003B617B691A680F213B690D
:104A100001FA03F3DB431A40396A3B6901FA03F3F5
:104A20001A437B691A603B685B6803F08053002B74
:104A300000F0B1804D4B9B694C4A43F001039361F8
:104A40004A4B9B6903F00103BB60BB68484A7B6A21
:104A50009B08023352F82330FB607B6A03F00303A8
:104A60009B000F2202FA03F3DB43FA681340FB605A
:104A70007B68404A934213D07B683F4A93420DD0F3
:104A80007B683E4A934207D07B683D4A934201D1FE
:104A9000032306E0042304E0022302E0012300E0F4
:104AA00000237A6A02F0030292009340FA681343EB
:104AB000FB602F497B6A9B080233FA6841F8232088
:104AC0003B685B6803F48013002B06D02D4B9A687B
:104AD0002C49BB6913438B6006E02A4B9A68BB697B
:104AE000DB43284913408B603B685B6803F4001389
:104AF000002B06D0234BDA682249BB691343CB60F5
:104B000006E0204BDA68BB69DB431E491340CB60EB
:104B10003B685B6803F40033002B06D0194B5A68DE
:104B20001849BB6913434B6006E0164B5A68BB69D2
:104B3000DB43144913404B603B685B6803F48033EC
:104B4000002B21D00F4B1A680E49BB6913430B6031
:104B500021E000BF000032100000311000002210E0
:104B6000000021100000121000001110001002407F
:104B70000000014000080140000C0140001001400D
:104B800000140140000401400B4B1A68BB69DB4371
:104B9000094913400B607B6A01337B623B681A68EA
:104BA0007B6A22FA03F3002B7FF48EAE00BF00BFB6
:104BB0002C37BD4680BC70470004014080B483B0F0
:104BC00000AF78600B467B8013467B707B78002BB0
:104BD00003D07A887B681A6103E07B881A047B68BB
:104BE0001A6100BF0C37BD4680BC704780B582B0EB
:104BF00000AF0346FB80084B5A69FB881340002B2B
:104C000006D0054AFB885361FB881846FDF7AAFDCC
:104C100000BF0837BD4680BD0004014080B586B0A6
:104C200000AF78607B68002B01D1012372E27B68C2
:104C30001B6803F00103002B00F08780924B5B6838
:104C400003F00C03042B0CD08F4B5B6803F00C03B8
:104C5000082B12D18C4B5B6803F48033B3F5803F93
:104C60000BD1894B1B6803F40033002B6CD07B689D
:104C70005B68002B68D101234CE27B685B68B3F56D
:104C8000803F06D1804B1B687F4A43F4803313601A
:104C90002EE07B685B68002B0CD17B4B1B687A4A4B
:104CA00023F480331360784B1B68774A23F4802306
:104CB00013601DE07B685B68B3F5A02F0CD1724BCD
:104CC0001B68714A43F4802313606F4B1B686E4A64
:104CD00043F4803313600BE06B4B1B686A4A23F488
:104CE00080331360684B1B68674A23F4802313608A
:104CF0007B685B68002B13D0FDF710FE386108E07D
:104D0000FDF70CFE02463B69D31A642B01D903233D
:104D100000E25D4B1B6803F40033002BF0D014E07D
:104D2000FDF7FCFD386108E0FDF7F8FD02463B6940
:104D3000D31A642B01D90323ECE1534B1B6803F412
:104D40000033002BF0D100E000BF7B681B6803F04C
:104D50000203002B63D04C4B5B6803F00C03002B69
:104D60000BD0494B5B6803F00C03082B1CD1464B5E
:104D70005B6803F48033002B16D1434B1B6803F0B0
:104D80000203002B05D07B681B69012B01D0012396
:104D9000C0E13D4B1B6823F0F8027B685B69DB00D8
:104DA000394913430B603AE07B681B69002B20D024
:104DB000364B01221A60FDF7B1FD386108E0FDF7BE
:104DC000ADFD02463B69D31A022B01D90323A1E1B1
:104DD0002D4B1B6803F00203002BF0D02A4B1B68FD
:104DE00023F0F8027B685B69DB00274913430B6003
:104DF00015E0264B00221A60FDF790FD386108E0AF
:104E0000FDF78CFD02463B69D31A022B01D903231F
:104E100080E11D4B1B6803F00203002BF0D17B687F
:104E20001B6803F00803002B3AD07B689B69002BBA
:104E300019D0174B01221A60FDF770FD386108E0A8
:104E4000FDF76CFD02463B69D31A022B01D90323FF
:104E500060E10D4B5B6A03F00203002BF0D00120F0
:104E600000F0BCFA1CE00A4B00221A60FDF756FD68
:104E700038610FE0FDF752FD02463B69D31A022B61
:104E800008D9032346E100BF00100240000042425F
:104E900080044242924B5B6A03F00203002BE9D18B
:104EA0007B681B6803F00403002B00F0A68000233E
:104EB000FB758B4BDB6903F08053002B0DD1884BC6
:104EC000DB69874A43F08053D361854BDB6903F08C
:104ED0008053BB60BB680123FB75824B1B6803F4E6
:104EE0008073002B18D17F4B1B687E4A43F480737C
:104EF0001360FDF713FD386108E0FDF70FFD024672
:104F00003B69D31A642B01D9032303E1754B1B685A
:104F100003F48073002BF0D07B68DB68012B06D193
:104F20006F4B1B6A6E4A43F0010313622DE07B68EE
:104F3000DB68002B0CD16A4B1B6A694A23F0010322
:104F40001362674B1B6A664A23F0040313621CE07A
:104F50007B68DB68052B0CD1614B1B6A604A43F010
:104F6000040313625E4B1B6A5D4A43F00103136244
:104F70000BE05B4B1B6A5A4A23F001031362584B48
:104F80001B6A574A23F0040313627B68DB68002B1B
:104F900015D0FDF7C3FC38610AE0FDF7BFFC0246FF
:104FA0003B69D31A41F28832934201D90323B1E01D
:104FB0004B4B1B6A03F00203002BEED014E0FDF70D
:104FC000ADFC38610AE0FDF7A9FC02463B69D31A43
:104FD00041F28832934201D903239BE0404B1B6A84
:104FE00003F00203002BEED1FB7D012B05D13C4BDE
:104FF000DB693B4A23F08053D3617B68DB69002B7C
:1050000000F08780364B5B6803F00C03082B61D0FF
:105010007B68DB69022B46D1334B00221A60FDF717
:105020007DFC386108E0FDF779FC02463B69D31A44
:10503000022B01D903236DE0294B1B6803F0007399
:10504000002BF0D17B681B6AB3F5803F08D1244B5D
:105050005B6823F400327B689B68214913434B60F3
:105060001F4B5B6823F474127B68196A7B685B6A68
:105070000B431B4913434B601B4B01221A60FDF786
:105080004DFC386108E0FDF749FC02463B69D31A44
:10509000022B01D903233DE0114B1B6803F0007381
:1050A000002BF0D035E0104B00221A60FDF736FCE3
:1050B000386108E0FDF732FC02463B69D31A022B47
:1050C00001D9032326E0064B1B6803F00073002B75
:1050D000F0D11EE07B68DB69012B07D1012319E0C9
:1050E0000010024000700040600042420B4B5B68C1
:1050F000FB60FB6803F480327B681B6A9A4206D12E
:10510000FB6803F470127B685B6A9A4201D001234A
:1051100000E0002318461837BD4680BD001002404D
:1051200080B584B000AF786039607B68002B01D116
:105130000123D0E06A4B1B6803F007033A689A42E8
:1051400010D9674B1B6823F0070265493B6813437E
:105150000B60634B1B6803F007033A689A4201D067
:105160000123B8E07B681B6803F00203002B20D00A
:105170007B681B6803F00403002B05D0594B5B6868
:10518000584A43F4E06353607B681B6803F00803EC
:10519000002B05D0534B5B68524A43F46053536075
:1051A000504B5B6823F0F0027B689B684D491343CA
:1051B0004B607B681B6803F00103002B40D07B68C9
:1051C0005B68012B07D1474B1B6803F40033002BAE
:1051D00015D101237FE07B685B68022B07D1414B2F
:1051E0001B6803F00073002B09D1012373E03D4BD2
:1051F0001B6803F00203002B01D101236BE0394B44
:105200005B6823F003027B685B68364913434B609D
:10521000FDF784FBF8600AE0FDF780FB0246FB68BF
:10522000D31A41F28832934201D9032353E02D4B24
:105230005B6803F00C027B685B689B009A42EBD1D1
:10524000274B1B6803F007033A689A4210D2244B9D
:105250001B6823F0070222493B6813430B60204B75
:105260001B6803F007033A689A4201D0012332E039
:105270007B681B6803F00403002B08D0194B5B68A4
:1052800023F4E0627B68DB68164913434B607B685C
:105290001B6803F00803002B09D0124B5B6823F452
:1052A00060527B681B69DB000E4913434B6000F0C2
:1052B00021F802460B4B5B681B0903F00F030A49F8
:1052C000CB5C22FA03F3094A1360094B1B681846AA
:1052D000FDF7E2FA002318461037BD4680BD00BF37
:1052E000002002400010024050670008000000202B
:1052F0000400002080B487B000AF0023FB600023CF
:10530000BB6000237B6100237B6000233B611E4B5D
:105310005B68FB60FB6803F00C03042B02D0082BD6
:1053200003D027E0194B3B6127E0FB689B0C03F09F
:105330000F03174AD35C7B60FB6803F48033002BB8
:1053400010D0114B5B685B0C03F00103114AD35C76
:10535000BB607B680D4A03FB02F2BB68B2FBF3F350
:105360007B6104E07B680C4A02FB03F37B617B6991
:105370003B6102E0094B3B6100BF3B6918461C37AB
:10538000BD4680BC704700BF001002400024F400FE
:10539000686700087867000800093D0000127A007D
:1053A00080B400AF024B1B681846BD4680BC7047F6
:1053B0000000002080B500AFFFF7F2FF0246054B6A
:1053C0005B68DB0A03F007030349CB5C22FA03F3B3
:1053D000184680BD001002406067000880B485B0A8
:1053E00000AF78600A4B1B680A4AA2FB03235B0AE2
:1053F0007A6802FB03F3FB6000BFFB685A1EFA6089
:10540000002BF9D100BF00BF1437BD4680BC7047E8
:1054100000000020D34D621080B586B000AF7860E8
:1054200000233B610023FB607B681B6803F00103E2
:10543000002B7DD00023FB754F4BDB6903F08053BD
:10544000002B0DD14C4BDB694B4A43F08053D361A9
:10545000494BDB6903F08053BB60BB680123FB75DC
:10546000464B1B6803F48073002B18D1434B1B6819
:10547000424A43F480731360FDF750FA386108E044
:10548000FDF74CFA02463B69D31A642B01D903237A
:105490006DE03A4B1B6803F48073002BF0D0364B61
:1054A0001B6A03F44073FB60FB68002B2ED07B6803
:1054B0005B6803F44073FA689A4227D02E4B1B6A4C
:1054C00023F44073FB602E4B01221A602C4B002208
:1054D0001A60294AFB681362FB6803F00103002B82
:1054E00014D0FDF71BFA38610AE0FDF717FA0246FF
:1054F0003B69D31A41F28832934201D9032336E043
:105500001D4B1B6A03F00203002BEED01A4B1B6AE3
:1055100023F440727B685B68174913430B62FB7D81
:10552000012B05D1144BDB69134A23F08053D3615F
:105530007B681B6803F00203002B08D00E4B5B68EE
:1055400023F440427B689B680B4913434B607B68A4
:105550001B6803F01003002B08D0074B5B6823F493
:1055600080027B68DB68044913434B6000231846C4
:105570001837BD4680BD00BF0010024000700040DB
:105580004004424280B588B000AF786000237B6160
:105590000023FB6100233B610023FB600023BB6110
:1055A0007B68102B0AD07B68102B00F289807B6807
:1055B000012B45D07B68022B74D081E0454B5B68A2
:1055C000FB60444B1B6803F08073002B7AD0FB68B0
:1055D0009B0C03F00F03404AD35C3B61FB6803F470
:1055E0008033002B15D03B4B5B685B0C03F0010351
:1055F0003A4AD35C7B61FB6803F48033002B0DD007
:10560000374A7B69B2FBF3F23B6902FB03F3FB61B0
:1056100004E03B69334A02FB03F3FB612D4B5B68FB
:1056200003F48003B3F5800F02D1FB69BB6149E04D
:10563000FB695B002C4AA2FB03235B08BB6141E0D2
:10564000244B1B6AFB60FB6803F44073B3F5807F57
:1056500008D1FB6803F00203002B03D04FF4004392
:10566000BB611EE0FB6803F44073B3F5007F09D112
:10567000184B5B6A03F00203002B03D049F640434A
:10568000BB610EE0FB6803F44073B3F5407F1BD1B0
:10569000104B1B6803F40033002B15D0134BBB6178
:1056A00012E011E0FFF786FE02460A4B5B689B0B97
:1056B00003F0030301335B00B2FBF3F3BB6104E0CF
:1056C00000BF02E000BF00E000BFBB691846203702
:1056D000BD4680BD001002407C6700088C67000852
:1056E0000024F40000093D00ABAAAAAA48E8010082
:1056F00080B582B000AF78607B68002B01D10123B8
:1057000041E07B6893F83D30DBB2002B06D17B682B
:10571000002283F83C207868FCF71CFB7B6802229F
:1057200083F83D207B681A687B680433194610466D
:1057300000F0CEFA7B68012283F846207B680122C4
:1057400083F83E207B68012283F83F207B6801229A
:1057500083F840207B68012283F841207B68012286
:1057600083F842207B68012283F843207B68012272
:1057700083F844207B68012283F845207B6801225E
:1057800083F83D20002318460837BD4680BD000041
:1057900080B584B000AF786039603B68002B09D1D8
:1057A0007B6893F83E30DBB2012B14BF012300234A
:1057B000DBB222E03B68042B09D17B6893F83F30D1
:1057C000DBB2012B14BF01230023DBB215E03B68E1
:1057D000082B09D17B6893F84030DBB2012B14BF52
:1057E00001230023DBB208E07B6893F84130DBB291
:1057F000012B14BF01230023DBB2002B01D00123B6
:105800005EE03B68002B04D17B68022283F83E20D7
:1058100013E03B68042B04D17B68022283F83F200D
:105820000BE03B68082B04D17B68022283F8402000
:1058300003E07B68022283F841207B681B68012219
:105840003968184600F0E7FC7B681B681E4A9342E3
:1058500007D17B681B685A6C7B681B6842F4004266
:105860005A647B681B68184A93420ED07B681B6899
:10587000B3F1804F09D07B681B68144A934204D06F
:105880007B681B68124A934211D17B681B689B6836
:1058900003F00703FB60FB68062B10D07B681B68D6
:1058A0001A687B681B6842F001021A6007E07B6897
:1058B0001B681A687B681B6842F001021A600023AB
:1058C00018461037BD4680BD002C01400004004042
:1058D0000008004080B582B000AF78607B68002B84
:1058E00001D1012341E07B6893F83D30DBB2002B0E
:1058F00006D17B68002283F83C20786800F039F8F4
:105900007B68022283F83D207B681A687B68043339
:105910001946104600F0DCF97B68012283F8462026
:105920007B68012283F83E207B68012283F83F20B8
:105930007B68012283F840207B68012283F84120A4
:105940007B68012283F842207B68012283F8432090
:105950007B68012283F844207B68012283F845207C
:105960007B68012283F83D20002318460837BD4696
:1059700080BD80B483B000AF786000BF0C37BD46F7
:1059800080BC704780B586B000AFF860B9607A60BF
:105990000023FB75FB6893F83C30012B01D10223F7
:1059A00088E0FB68012283F83C207B68002B1BD138
:1059B000FB681868BB681968BB685A68BB68DB6815
:1059C00000F086FAFB681B689A69FB681B6822F086
:1059D0000C029A61FB681B689969BB689A68FB684E
:1059E0001B680A439A6160E07B68042B1CD1FB684A
:1059F0001868BB681968BB685A68BB68DB6800F048
:105A0000EFFAFB681B689A69FB681B6822F4406226
:105A10009A61FB681B689969BB689B681A02FB68FE
:105A20001B680A439A6140E07B68082B1BD1FB6826
:105A30001868BB681968BB685A68BB68DB6800F007
:105A40003AFBFB681B68DA69FB681B6822F00C02F2
:105A5000DA61FB681B68D969BB689A68FB681B68D8
:105A60000A43DA6121E07B680C2B1CD1FB681868C3
:105A7000BB681968BB685A68BB68DB6800F056FBF6
:105A8000FB681B68DA69FB681B6822F44062DA6114
:105A9000FB681B68D969BB689B681A02FB681B68B6
:105AA0000A43DA6101E00123FB75FB68002283F8F9
:105AB0003C20FB7D18461837BD4680BD80B584B0BC
:105AC00000AF786039600023FB737B6893F83C304B
:105AD000012B01D10223B4E07B68012283F83C2032
